{
  "contracts/Voting.sol": {
    "CryptonVoting": {
      "abi": [
        {
          "inputs": [
            {
              "internalType": "uint256",
              "name": "_votingDuration",
              "type": "uint256"
            }
          ],
          "stateMutability": "nonpayable",
          "type": "constructor"
        },
        {
          "anonymous": false,
          "inputs": [
            {
              "indexed": true,
              "internalType": "address",
              "name": "_to",
              "type": "address"
            },
            {
              "indexed": false,
              "internalType": "uint256",
              "name": "_value",
              "type": "uint256"
            }
          ],
          "name": "Transfer",
          "type": "event"
        },
        {
          "anonymous": false,
          "inputs": [
            {
              "indexed": true,
              "internalType": "uint256",
              "name": "_index",
              "type": "uint256"
            },
            {
              "indexed": true,
              "internalType": "address",
              "name": "_address",
              "type": "address"
            },
            {
              "indexed": false,
              "internalType": "uint256",
              "name": "_prize",
              "type": "uint256"
            }
          ],
          "name": "Winner",
          "type": "event"
        },
        {
          "inputs": [
            {
              "internalType": "uint256",
              "name": "_index",
              "type": "uint256"
            },
            {
              "internalType": "address[]",
              "name": "_candidates",
              "type": "address[]"
            }
          ],
          "name": "addVoting",
          "outputs": [],
          "stateMutability": "nonpayable",
          "type": "function"
        },
        {
          "inputs": [],
          "name": "comission",
          "outputs": [
            {
              "internalType": "uint256",
              "name": "",
              "type": "uint256"
            }
          ],
          "stateMutability": "view",
          "type": "function"
        },
        {
          "inputs": [
            {
              "internalType": "uint256",
              "name": "_index",
              "type": "uint256"
            }
          ],
          "name": "finishVoting",
          "outputs": [],
          "stateMutability": "nonpayable",
          "type": "function"
        },
        {
          "inputs": [],
          "name": "freeBalance",
          "outputs": [
            {
              "internalType": "uint256",
              "name": "",
              "type": "uint256"
            }
          ],
          "stateMutability": "view",
          "type": "function"
        },
        {
          "inputs": [],
          "name": "getBalance",
          "outputs": [
            {
              "internalType": "uint256",
              "name": "",
              "type": "uint256"
            }
          ],
          "stateMutability": "view",
          "type": "function"
        },
        {
          "inputs": [
            {
              "internalType": "uint256",
              "name": "_index",
              "type": "uint256"
            }
          ],
          "name": "getCandidates",
          "outputs": [
            {
              "internalType": "address[]",
              "name": "",
              "type": "address[]"
            }
          ],
          "stateMutability": "view",
          "type": "function"
        },
        {
          "inputs": [
            {
              "internalType": "uint256",
              "name": "_index",
              "type": "uint256"
            }
          ],
          "name": "getTimeLeft",
          "outputs": [
            {
              "internalType": "int256",
              "name": "",
              "type": "int256"
            }
          ],
          "stateMutability": "view",
          "type": "function"
        },
        {
          "inputs": [
            {
              "internalType": "uint256",
              "name": "_index",
              "type": "uint256"
            },
            {
              "internalType": "address",
              "name": "_candidate",
              "type": "address"
            }
          ],
          "name": "getVotes",
          "outputs": [
            {
              "internalType": "uint256",
              "name": "",
              "type": "uint256"
            }
          ],
          "stateMutability": "view",
          "type": "function"
        },
        {
          "inputs": [
            {
              "internalType": "uint256",
              "name": "_index",
              "type": "uint256"
            }
          ],
          "name": "getWinner",
          "outputs": [
            {
              "internalType": "address",
              "name": "",
              "type": "address"
            }
          ],
          "stateMutability": "view",
          "type": "function"
        },
        {
          "inputs": [
            {
              "internalType": "uint256",
              "name": "_index",
              "type": "uint256"
            },
            {
              "internalType": "address",
              "name": "_candidate",
              "type": "address"
            }
          ],
          "name": "vote",
          "outputs": [],
          "stateMutability": "payable",
          "type": "function"
        },
        {
          "inputs": [],
          "name": "votePrice",
          "outputs": [
            {
              "internalType": "uint256",
              "name": "",
              "type": "uint256"
            }
          ],
          "stateMutability": "view",
          "type": "function"
        },
        {
          "inputs": [],
          "name": "votingDuration",
          "outputs": [
            {
              "internalType": "uint256",
              "name": "",
              "type": "uint256"
            }
          ],
          "stateMutability": "view",
          "type": "function"
        },
        {
          "inputs": [
            {
              "internalType": "uint256",
              "name": "",
              "type": "uint256"
            }
          ],
          "name": "vp",
          "outputs": [
            {
              "internalType": "address",
              "name": "winner",
              "type": "address"
            },
            {
              "internalType": "uint256",
              "name": "allVotes",
              "type": "uint256"
            },
            {
              "internalType": "uint256",
              "name": "maxVotes",
              "type": "uint256"
            },
            {
              "internalType": "uint256",
              "name": "finishTime",
              "type": "uint256"
            },
            {
              "internalType": "bool",
              "name": "inProcess",
              "type": "bool"
            }
          ],
          "stateMutability": "view",
          "type": "function"
        },
        {
          "inputs": [
            {
              "internalType": "uint256",
              "name": "_value",
              "type": "uint256"
            }
          ],
          "name": "withdraw",
          "outputs": [],
          "stateMutability": "nonpayable",
          "type": "function"
        }
      ],
      "evm": {
        "bytecode": {
          "linkReferences": {},
          "object": "6080604052662386f26fc10000600255600a6003553480156200002157600080fd5b50604051620038a8380380620038a88339818101604052810190620000479190620001b4565b6200007b7f8f7ff236f3833984bddf0244f083cfffb7baa4fa2a3d976e5577980206425d8560001b6200019a60201b60201c565b620000af7fab1f658b733ab8400249dda1ac1992518d2d0f9b1e156a7f93bd58af3302f61060001b6200019a60201b60201c565b620000e37f46a4aada76813741a1ca1ea8fffcc72dfe47f58ec7f9a90f3a17eb0bcd86bfe860001b6200019a60201b60201c565b33600560006101000a81548173ffffffffffffffffffffffffffffffffffffffff021916908373ffffffffffffffffffffffffffffffffffffffff160217905550620001587f6936ecda9d8916b72b7b9f40d80017295427df88baacea4b6473343c9c89650b60001b6200019a60201b60201c565b6200018c7f4861cfa06bda1343033c3fa7a35685ff6723278e4564fe55d7bb5a2c89e0916560001b6200019a60201b60201c565b806001819055505062000204565b50565b600081519050620001ae81620001ea565b92915050565b600060208284031215620001c757600080fd5b6000620001d7848285016200019d565b91505092915050565b6000819050919050565b620001f581620001e0565b81146200020157600080fd5b50565b61369480620002146000396000f3fe6080604052600436106100dd5760003560e01c80634129b2c91161007f578063860c851a11610059578063860c851a146102cb578063abe7c08e146102f6578063d6e20a651461031f578063e8c5876314610348576100dd565b80634129b2c914610210578063681973601461024d5780637f4807a11461028a576100dd565b806325185d3e116100bb57806325185d3e146101545780632e1a7d4d1461017f5780633a4b4532146101a85780633e39a7a5146101d3576100dd565b806302d947ef146100e257806312065fe0146100fe578063132002fc14610129575b600080fd5b6100fc60048036038101906100f79190612acb565b610385565b005b34801561010a57600080fd5b50610113610f92565b6040516101209190613071565b60405180910390f35b34801561013557600080fd5b5061013e61101e565b60405161014b9190613071565b60405180910390f35b34801561016057600080fd5b50610169611024565b6040516101769190613071565b60405180910390f35b34801561018b57600080fd5b506101a660048036038101906101a19190612aa2565b61102a565b005b3480156101b457600080fd5b506101bd6114ce565b6040516101ca9190613071565b60405180910390f35b3480156101df57600080fd5b506101fa60048036038101906101f59190612aa2565b6114d4565b6040516102079190612e74565b60405180910390f35b34801561021c57600080fd5b5061023760048036038101906102329190612aa2565b6115fb565b6040516102449190612e06565b60405180910390f35b34801561025957600080fd5b50610274600480360381019061026f9190612acb565b6116be565b6040516102819190613071565b60405180910390f35b34801561029657600080fd5b506102b160048036038101906102ac9190612aa2565b6117a2565b6040516102c2959493929190612e21565b60405180910390f35b3480156102d757600080fd5b506102e0611805565b6040516102ed9190613071565b60405180910390f35b34801561030257600080fd5b5061031d60048036038101906103189190612aa2565b61180b565b005b34801561032b57600080fd5b5061034660048036038101906103419190612b07565b611eca565b005b34801561035457600080fd5b5061036f600480360381019061036a9190612aa2565b6127bc565b60405161037c9190612e96565b60405180910390f35b81816103b37fdfc592934724453da185fb8e8874a4cdcebd126166b3b0b9b7ee134f9a8c236660001b61286a565b6103df7f843db57c97b23e5b67e6a9bd7fc2df039ddb4ebc731af57ab9f1aba828d4bd8f60001b61286a565b61040b7f57e362c88f6f3d5d8fa04de4ff0bbb8e48f39c87138e977fea858f6a5dabeb3160001b61286a565b6104377fccf5412143aadb95a9969fe2245d676305a6127c93b292ed2ee8a98e756ca16160001b61286a565b60008083815260200190815260200160002060070160009054906101000a900460ff16610499576040517f08c379a000000000000000000000000000000000000000000000000000000000815260040161049090612eb1565b60405180910390fd5b6104c57f4f188af283a3812465da23f6757b93498c4c5ade911fca1a40fcf9f3c319fca260001b61286a565b6104f17f474a6aaa5f2e16fb87c035a8d92d4e75d05d8bfb341acc3f597bf46783d1088560001b61286a565b61051d7ff7433932e506b110999cd0bf8e58fceb6a923605fcccd47c7e595d79b72af65d60001b61286a565b6105497f3ac107da5310104f8fec1b976a61349783abb3f64eddca123031cdeaa503a50860001b61286a565b4260008084815260200190815260200160002060060154116105a0576040517f08c379a000000000000000000000000000000000000000000000000000000000815260040161059790612ef1565b60405180910390fd5b6105cc7f8c0210d8c8c557988162fa0fcb32645f477e4fd18a00b1b63290a0f6f40e5a4f60001b61286a565b6105f87fe84c7d02cef2a7a050f9b23c4cf9918ab953fbad5ec783629c5be56ab20c77e860001b61286a565b6106247fdd58f7b93a19e9450ade180fcceea87f10ad0ed0bddbfac9b05bda4b88d0c16e60001b61286a565b6106507f89c4936121484632c17c2eb3ed766fd84c92fb35db9f0b0b935b4fae5bf3918960001b61286a565b8073ffffffffffffffffffffffffffffffffffffffff163373ffffffffffffffffffffffffffffffffffffffff1614156106bf576040517f08c379a00000000000000000000000000000000000000000000000000000000081526004016106b690612f11565b60405180910390fd5b6106eb7f3bad41794ed7e9bffd053f5a53e2ce08360e562d54b25c56308ce2c458046c9c60001b61286a565b6107177f8383744722925c20bc89774c8cda3346ead04a3de17d1fc7c5d10f733562bdc660001b61286a565b6107437fdd7c23039c5cfd0de197dd04ae14987cba1c6aca8de66a0c2c9a136615917b2260001b61286a565b61076f7f508a9d4d92bc6503961b0330feb5aba661c7ba0af8b9ea79938c97cbc259b9e160001b61286a565b60008083815260200190815260200160002060010160008273ffffffffffffffffffffffffffffffffffffffff1673ffffffffffffffffffffffffffffffffffffffff16815260200190815260200160002060010160009054906101000a900460ff16610811576040517f08c379a000000000000000000000000000000000000000000000000000000000815260040161080890612fd1565b60405180910390fd5b61083d7fb7d076b057978ec309c70533a29c238d470861c5cf6c1a3aab79cd94803481b360001b61286a565b6108697f7c30536f7ff718ca7d95a5b66d183b399133c440f1e611ca0dc5604b3a031ddc60001b61286a565b6108957f4eeb60b7007b449dd3d9ae7b4f022540a91cf2514738a35e113a3f916c5d731160001b61286a565b6108c17f2a80211ae5361e719edea6875b5eae8ee9e49d5bf4b47413ca878869e4364f8160001b61286a565b6002543414610905576040517f08c379a00000000000000000000000000000000000000000000000000000000081526004016108fc90612fb1565b60405180910390fd5b6109317ffb7a6402889a477fd8c9b3fa7f990d5f81d940bfd0a86f024a0cf603e38cfaff60001b61286a565b61095d7f2003df7e55239bbe0810382ad85128bb317ebac1113d2bdf575936106bca63fa60001b61286a565b6109897fbfbc4b8fd85d9549d066f7638f206b78ed8b73bb921e4f95260b8b148bf84d7160001b61286a565b6109b57f0d4046d480b1c3864109bdc335afd997e5afaa69309bde7fe362cc1dd29e08ec60001b61286a565b600073ffffffffffffffffffffffffffffffffffffffff1660008084815260200190815260200160002060000160003373ffffffffffffffffffffffffffffffffffffffff1673ffffffffffffffffffffffffffffffffffffffff16815260200190815260200160002060009054906101000a900473ffffffffffffffffffffffffffffffffffffffff1673ffffffffffffffffffffffffffffffffffffffff1614610a96576040517f08c379a0000000000000000000000000000000000000000000000000000000008152600401610a8d90612f51565b60405180910390fd5b610ac27f983043dcec0b90562af12bc667203ea2125eebe6d22178e1de33da31bad12c3d60001b61286a565b610aee7f43a870ecb37b9da7d10dc6e80807558131870e9c652b5023d0f57f4c3031d0e260001b61286a565b610b1a7f3a198ae6e3e3f78d59e20421429922050d50632a4762fc83c09f895917c2d8ae60001b61286a565b610b467f9a90396b3d0b30e7908c6306442e2e9d76a2754e5abcedec12903b358e4a4b9f60001b61286a565b60008085815260200190815260200160002060010160008473ffffffffffffffffffffffffffffffffffffffff1673ffffffffffffffffffffffffffffffffffffffff1681526020019081526020016000206000016000815480929190610bac906132bf565b9190505550610bdd7fd6747678637c73016787c5de4fc29aa74929e0408854d6ce30385ab971281f0860001b61286a565b610c097f04fc5505e5b318faaed5426c7326997fc168066ecd9d7c357fb125670a28db9260001b61286a565b8260008086815260200190815260200160002060000160003373ffffffffffffffffffffffffffffffffffffffff1673ffffffffffffffffffffffffffffffffffffffff16815260200190815260200160002060006101000a81548173ffffffffffffffffffffffffffffffffffffffff021916908373ffffffffffffffffffffffffffffffffffffffff160217905550610cc67fa5263a9c34f39a969b1a04955b52c7cee9ad11856e24266d3653915f6480bcb860001b61286a565b6000808581526020019081526020016000206004016000815480929190610cec906132bf565b9190505550610d1d7f056500318ecf3e852fa53a7bad07ab2e9d93b56ace6c68edcf2b2b60d7048f8660001b61286a565b610d497fd96ce6280c91703d0ddcb8333e229e840b0be068d24f58cb49797193920745f960001b61286a565b6000808581526020019081526020016000206005015460008086815260200190815260200160002060010160008573ffffffffffffffffffffffffffffffffffffffff1673ffffffffffffffffffffffffffffffffffffffff168152602001908152602001600020600001541115610f5f57610de77fe76efb4a3b9a1cc0f2f417043059cf01773262540165c5da931c4ae3d560cc1660001b61286a565b610e137f522c6e3a3dc394c8e48a85c94fd474b1ab352871ceef0e10b8e8e6bcbe11af9660001b61286a565b610e3f7f273d4ac68fa76ca0a396f6fab8fa47cdd02ced62e5c40be530a94c0a841e54f960001b61286a565b60008085815260200190815260200160002060010160008473ffffffffffffffffffffffffffffffffffffffff1673ffffffffffffffffffffffffffffffffffffffff1681526020019081526020016000206000015460008086815260200190815260200160002060050181905550610eda7fa704029bd2e8fa2c0ab47a097912551c061256be56646c8fb6f0f1da2bf8e1bd60001b61286a565b610f067fb8e72b576d1b7adbc6eaee1b9aa1f4999259be188d63d155510029f37eb1cdd460001b61286a565b8260008086815260200190815260200160002060030160006101000a81548173ffffffffffffffffffffffffffffffffffffffff021916908373ffffffffffffffffffffffffffffffffffffffff160217905550610f8c565b610f8b7fc4d04c9fb7e24e5a6205be38f5711de7d3781a410ec30a2b2adec2bbf5db087960001b61286a565b5b50505050565b6000610fc07feff66ad69a6827f065e88b766d771cda11e4a6ae66a6d10ce4267b6099e0afd560001b61286a565b610fec7fa2db813de5a2dd27f1b147cb91ae52707d847373d3377a3841801a26e264268f60001b61286a565b6110187fcd7e9fc9d4873d5f35175ca80f88eb24aed987b62e2c99fb1e1f5967016e8d3460001b61286a565b47905090565b60015481565b60045481565b6110567f3c7af0c7f8f4b479781275aaca4275a784b68eac9ded6989e63650b17e06977560001b61286a565b6110827f17da741f75a73c8229437ba40a752a7c9b7a9844c27697998a2cf67876bd4e4460001b61286a565b6110ae7f708b060130cb53e117bc0b61109e4ce774e56644f8c46d3be7993b4b10405c7260001b61286a565b6110da7f0237277423f050ff67d8f5e90b324ff391216c753b605ca9a929f14632c2c19e60001b61286a565b600560009054906101000a900473ffffffffffffffffffffffffffffffffffffffff1673ffffffffffffffffffffffffffffffffffffffff163373ffffffffffffffffffffffffffffffffffffffff161461116a576040517f08c379a000000000000000000000000000000000000000000000000000000000815260040161116190612ed1565b60405180910390fd5b6111957ea21a7544b7e25c140c4f1e07126a91827c34d641103b06acf1aa55deb3c9d060001b61286a565b6111c17f528237a7031718f8f40714f253a1b4b45e821b47d24a7cad2ea3df146b084f3860001b61286a565b6111ed7ff990281323a00ce0ceaf09b20f62857f9244f5b9eb218d6dc6a39a89abe72fca60001b61286a565b6112197fd04ec62d7b3d2dcb44c011f5b289881073058039e67a643de4130c5dbc72193c60001b61286a565b6112457f094b67186af581a8c5c35fae0e449ecd5d47ad32179d13ddda1364ec6270c1b460001b61286a565b6112717f836baf79d905cad5e2230d583369e383fbd0f7f3b4fde67aa4805297afdb6df960001b61286a565b6004548111156112b6576040517f08c379a00000000000000000000000000000000000000000000000000000000081526004016112ad90612f91565b60405180910390fd5b6112e27f1893f5aa8f03842f92485fc3bfe746959df4785f998e010e296bb63c5f2c65d760001b61286a565b61130e7f1d6b2b9e6bd212199e3aa8841cdde9ceb8553d8319a1d1f43598e6b428dfd27f60001b61286a565b61133a7f95d7ae6e872f2197954a501046a9ffecea1b1b07995a2d40da4fa75230ae2e6560001b61286a565b6113667f099b78f03a0e62799fea02f9b820fbf004fe97e0f1083f288aa210b9e9fb4b6160001b61286a565b60008114156113aa576040517f08c379a00000000000000000000000000000000000000000000000000000000081526004016113a190612f71565b60405180910390fd5b6113d67f7adee266636832ce72d4747a14f04f6dbf87f01130b43791b3d39a3fec1d730160001b61286a565b6114027ffb8f9509c560a223e1744080a518bb06517d3ed5da056a1f6315ed365656adb460001b61286a565b61142e7f5151a0cde136fb5dabfaf8c264f5153ed1b9487209684cd235ed6ce0e629505b60001b61286a565b61145a600560009054906101000a900473ffffffffffffffffffffffffffffffffffffffff168261286d565b6114867fc13d17a52773a55b0a262f255961ab726fc4765cd48999fd086ed1c6ae6b1d9c60001b61286a565b6114b27f62ee2b4474ee35288029fd6324f8bdfe07095f2c75211c6925803d93468aafd060001b61286a565b80600460008282546114c49190613208565b9250508190555050565b60035481565b60606115027f0a0eb339a724b190ede9fb2cb043798d935048a1b658465cfda20b02156d506d60001b61286a565b61152e7f5c1a7b70ed91b180878c8539df91720060a4c19a8b963bc21cc44c3e2b20fff760001b61286a565b61155a7fb66be82ce9d6e92e5e8336cba20de1612992eccda65e437b8b9ec785ac33bdfe60001b61286a565b6000808381526020019081526020016000206002018054806020026020016040519081016040528092919081815260200182805480156115ef57602002820191906000526020600020905b8160009054906101000a900473ffffffffffffffffffffffffffffffffffffffff1673ffffffffffffffffffffffffffffffffffffffff16815260200190600101908083116115a5575b50505050509050919050565b60006116297f9bb01ee17ee7da5e986b5d16d403520ad707c7624910531109d0898b5613086960001b61286a565b6116557f94f2ad3786bbb52649f9b4c6dd368f5ebc23b4fda5669442ee4b7fed00c7281560001b61286a565b6116817f3f48cb40fcc10a8dd1e390da8596e5d3217f7bb3af8328dbad55b6ca6710ae9060001b61286a565b60008083815260200190815260200160002060030160009054906101000a900473ffffffffffffffffffffffffffffffffffffffff169050919050565b60006116ec7fdf5c5f99307595d02dbb82f92e84d8fd0ce42620a3f9708457cdd9f44149fc8760001b61286a565b6117187f7be92e717284a065d304a4ecbb1dd4eabb487e779c82975c73d74c91f393723b60001b61286a565b6117447f5ee042667a8d2e01abaf3b0356859ba109975e099ce681aa99bbe4a182a7c87b60001b61286a565b60008084815260200190815260200160002060010160008373ffffffffffffffffffffffffffffffffffffffff1673ffffffffffffffffffffffffffffffffffffffff16815260200190815260200160002060000154905092915050565b60006020528060005260406000206000915090508060030160009054906101000a900473ffffffffffffffffffffffffffffffffffffffff16908060040154908060050154908060060154908060070160009054906101000a900460ff16905085565b60025481565b6118377f5754ada1cf7fc830e55b31589d87ddc3a67a0fb0ed58731040ca6a0545ce079a60001b61286a565b6118637f425d5ebc82264d2e21bff253bd704112e9732cbd2e9b3be38f6f41fef0c9412a60001b61286a565b61188f7fc0d1c5bdd9cc115441987c27e1639d3a20c60502de43ca9b0aa82f4dee5362e460001b61286a565b6118bb7f6eb75fd416424ffff6cbb0a989922a2a8194563fd277370f7b4d9d9d8ac07c6f60001b61286a565b60008082815260200190815260200160002060070160009054906101000a900460ff1661191d576040517f08c379a000000000000000000000000000000000000000000000000000000000815260040161191490613011565b60405180910390fd5b6119497f0fedfb28ce4cb0d285d12b0c71b9d88070bfc98776a7f16a88bb3d711c44231760001b61286a565b6119757fa663b7bfabd1e50e94bc9a6365b3dfb360fbd57fa44d1d78427a3a61610badfc60001b61286a565b6119a17f60eb676291c55aa9960e50cb0ca41dde483e428220c8e1c1b3ebae3eeadf9eed60001b61286a565b6119cd7fb1ac4059c3d05477bcfcb12345c57baef6b69de8093e3d62986d1904c072878060001b61286a565b42600080838152602001908152602001600020600601541115611a25576040517f08c379a0000000000000000000000000000000000000000000000000000000008152600401611a1c90612f31565b60405180910390fd5b611a517f8cc43d6fe3170ffd8cfb8897f2b5e4e9616af110cac1aaf5ae663db93fd7521460001b61286a565b611a7d7f3711347d3490e072f6bd421a8f6b7c9fa56cbed3a171eb5553f4697081ed3a1f60001b61286a565b611aa97f44f26dd25d64f91ce172fdc0c5fc2211c571dabaa78c9ee974c9dcebf4907cfb60001b61286a565b600080600083815260200190815260200160002060070160006101000a81548160ff021916908315150217905550611b037fd1857040418d0ad940b83913eb4c3cfb9a235d7133b519ae3193cc1f522141ab60001b61286a565b611b2f7f370acbdd93d154a822535e5c464d9b68db5cba6638512607b3633b4afc9d277760001b61286a565b6000806000838152602001908152602001600020600401541415611bd657611b797faa4b588216d34816839518da271fdceea2f91908808af93b2e274c5bc68565f360001b61286a565b611ba57f09108851ca75877a789006811275150088dbee202007efbf4363cd0f3c4c064d60001b61286a565b611bd17ff1b99c7a218efc8a105e027087089b26437ef839a92bc4b67da0e1a40113e97360001b61286a565b611ec7565b611c027fa9f94e264fb010a166b6cfd2ebec785456031bd0ee83c692d7ec012f8c1af9cb60001b61286a565b611c2e7f1cff356a02608062365788297f1c9b4811f0cd430a2e0b546a795a4af6a7a8dd60001b61286a565b611c5a7f1fe7c50d504cb8eefdb3d74f06a7781b952700ee2d7e2dc66823f40b6127c72460001b61286a565b600060646003546064611c6d9190613208565b60025460008086815260200190815260200160002060040154611c9091906131ae565b611c9a91906131ae565b611ca4919061317d565b9050611cd27f79978f829b93b51016f410ce3916614a4560aad9dcb6050626729078333df22e60001b61286a565b611cfe7f8abbdd27a0894e0699e5f75cb1729d7fed496438bca17e31f2dff7ffbf96c17960001b61286a565b60008083815260200190815260200160002060030160009054906101000a900473ffffffffffffffffffffffffffffffffffffffff1673ffffffffffffffffffffffffffffffffffffffff16827f1c2ae1f7e99dbbbfe25aac964f3889ea68259d88b74709f53037a6fb930bb02a83604051611d7a9190613071565b60405180910390a3611dae7f8deb733efe0c0d40f4468c80ef7b291a82362ce0998914930d55a95a3794913360001b61286a565b611dda7fa1b90bc6aab1c3096897befaabe3f9086392005d26b8dfa2730cc3b977ba51bb60001b61286a565b611e1960008084815260200190815260200160002060030160009054906101000a900473ffffffffffffffffffffffffffffffffffffffff168261286d565b611e457f81cc162194aa77c2a464c6c216f1884aabff8133e7c6baa064bd767ee681420460001b61286a565b611e717f8105cca5901932826b857436a16a63b4144cb34783dc383930fca7d4f57ae48660001b61286a565b606460035460025460008086815260200190815260200160002060040154611e9991906131ae565b611ea391906131ae565b611ead919061317d565b60046000828254611ebe9190613127565b92505081905550505b50565b611ef67f3c7af0c7f8f4b479781275aaca4275a784b68eac9ded6989e63650b17e06977560001b61286a565b611f227f17da741f75a73c8229437ba40a752a7c9b7a9844c27697998a2cf67876bd4e4460001b61286a565b611f4e7f708b060130cb53e117bc0b61109e4ce774e56644f8c46d3be7993b4b10405c7260001b61286a565b611f7a7f0237277423f050ff67d8f5e90b324ff391216c753b605ca9a929f14632c2c19e60001b61286a565b600560009054906101000a900473ffffffffffffffffffffffffffffffffffffffff1673ffffffffffffffffffffffffffffffffffffffff163373ffffffffffffffffffffffffffffffffffffffff161461200a576040517f08c379a000000000000000000000000000000000000000000000000000000000815260040161200190612ed1565b60405180910390fd5b6120357ea21a7544b7e25c140c4f1e07126a91827c34d641103b06acf1aa55deb3c9d060001b61286a565b6120617f528237a7031718f8f40714f253a1b4b45e821b47d24a7cad2ea3df146b084f3860001b61286a565b61208d7fb0430d52cda17f0f1a67e7192da36ac223d335f6bc2db18bb739f84f67a962b460001b61286a565b6120b97fd980f844476a03082987693d8bf16290a201cb4f456c84c2af43094fec0f405760001b61286a565b6120e57fb461c1bd0c1dabc80ba017df99b8bba834e868f54d7fcaca00d637104f1765d760001b61286a565b6121117f1ec2008a2ddd73a32bd3b6ed560f9ac4d705804b3e804ccb737233f4f969284360001b61286a565b60008083815260200190815260200160002060070160009054906101000a900460ff1615612174576040517f08c379a000000000000000000000000000000000000000000000000000000000815260040161216b90613051565b60405180910390fd5b6121a07ff8a61a1b11eb40157ae7ef9826fbb4bcd42ea9cda497d96daf2002f73827a6c860001b61286a565b6121cc7f60a623e8a7b928312532a439cec2350a772014affa46ecfb881627874582986960001b61286a565b6121f87f0c7348cf12b0a72ddb7c29a9a08543a7c043cde4322a19b047d0199424ff3cb460001b61286a565b6122247fe371e3dc66d493a096d7a6f543e190d65d9a073e3460d3eaa77eac555856f92c60001b61286a565b6001815111612268576040517f08c379a000000000000000000000000000000000000000000000000000000000815260040161225f90612ff1565b60405180910390fd5b6122947ff112b23c041ea2ef7640fc18d1123cc7728547531a0a9ad622c41cd5f0c5e67560001b61286a565b6122c07f583d8f4b10fd1afc47063cbb81b264c521156484b44b3c5eebb267475ec96cd960001b61286a565b6122ec7f4ccbe73c856b5192a125ea4ce67d2dd5e98f9203e22224c09c24834e0d6772e860001b61286a565b60005b81518110156126b2576123247f0b38d0d6523af0310b1b178c3c4d7db25e743aa79c68f48a88a8601accd59c9c60001b61286a565b6123507f4d9294571d344616e6a81e67aa4e006b68168c4b794f4e4491ba1270fbbb132860001b61286a565b61237c7f7ebeb2ff017668530be8477daf6eeb4725c09da4ef5755d1b0d85f490723d5fc60001b61286a565b60008084815260200190815260200160002060010160008383815181106123cc577f4e487b7100000000000000000000000000000000000000000000000000000000600052603260045260246000fd5b602002602001015173ffffffffffffffffffffffffffffffffffffffff1673ffffffffffffffffffffffffffffffffffffffff16815260200190815260200160002060010160009054906101000a900460ff161561245f576040517f08c379a000000000000000000000000000000000000000000000000000000000815260040161245690613031565b60405180910390fd5b61248b7fe2c0bafc99f10bcd1b4dc37c6a2524153210d78e534c8b952a04eb1ec8e0888560001b61286a565b6124b77ffc8d52829c52d6130896664c99f3d875e0fba3f77cc4b829b968912192a9c95a60001b61286a565b6124e37f23900498f7a25fb926680697aa46c6505458fa424066d84040d0943ecc4062b260001b61286a565b60016000808581526020019081526020016000206001016000848481518110612535577f4e487b7100000000000000000000000000000000000000000000000000000000600052603260045260246000fd5b602002602001015173ffffffffffffffffffffffffffffffffffffffff1673ffffffffffffffffffffffffffffffffffffffff16815260200190815260200160002060010160006101000a81548160ff0219169083151502179055506125bd7f2a5a584def8d50060335364416c6712ee31cbe2d9f7236aacefccc769e2f601f60001b61286a565b6125e97f53b0738891f90be2c27924e5bd57cdbd6cdffe192363a5146f30474bf8ba3b4a60001b61286a565b600080848152602001908152602001600020600201828281518110612637577f4e487b7100000000000000000000000000000000000000000000000000000000600052603260045260246000fd5b60200260200101519080600181540180825580915050600190039060005260206000200160009091909190916101000a81548173ffffffffffffffffffffffffffffffffffffffff021916908373ffffffffffffffffffffffffffffffffffffffff16021790555080806126aa906132bf565b9150506122ef565b506126df7f59c0011e3fa5dfb051caf6c023a3e6013dc6d1d7425628e7a586b9abcbe9d8b560001b61286a565b61270b7fe83e0681976a09128d13ed097959142ffe197a3edda1f8c3d34ec6236b15932160001b61286a565b600160008084815260200190815260200160002060070160006101000a81548160ff0219169083151502179055506127657fe129b29918066535ddfc122c3c20cf31aab2fabd154a9b60db34dd67c1f55c3160001b61286a565b6127917f5f99390f842e89e5645a3a6f796b8e6062c4285a519ec7f8dee8539b846ff4bc60001b61286a565b6001544261279f9190613127565b600080848152602001908152602001600020600601819055505050565b60006127ea7ff5e240354bc5bb3496b9e96013282c032b5a8e33ad29bb194c1e74e9b609829860001b61286a565b6128167f146d6bdc370fcf9153ad93e721a746aeba5f82c681e24c3e0b131fec4eef811460001b61286a565b6128427f057da40c6ab599e94a9d9c6e259c097928d82238de154508c53a2edc7ea3976160001b61286a565b42600080848152602001908152602001600020600601546128639190613208565b9050919050565b50565b6128997ff525bb4aa696b2bc29fa320f607ef0152235418e1c11636252a9cdb1e006af7660001b61286a565b6128c57f7d2efc7236f229b45c9ba3121f70397aab7db34f9fe0dd3fe383d9dd74d3123b60001b61286a565b6128f17f10dbe6be8972623f97da63c82e7020ae8021a9d053d8fc33ec7dc8ed50d2dd9160001b61286a565b8173ffffffffffffffffffffffffffffffffffffffff166108fc829081150290604051600060405180830381858888f19350505050158015612937573d6000803e3d6000fd5b506129647f6249c1f072d0d4b3853c19d764262808ba112596926e35723e36244c9d30477560001b61286a565b6129907f67b3b8fdbca3f49b3f08f896e86af8086ffc291c9aaa1aafad88c03d76f77dcc60001b61286a565b8173ffffffffffffffffffffffffffffffffffffffff167f69ca02dd4edd7bf0a4abb9ed3b7af3f14778db5d61921c7dc7cd545266326de2826040516129d69190613071565b60405180910390a25050565b60006129f56129f0846130b1565b61308c565b90508083825260208201905082856020860282011115612a1457600080fd5b60005b85811015612a445781612a2a8882612a4e565b845260208401935060208301925050600181019050612a17565b5050509392505050565b600081359050612a5d81613630565b92915050565b600082601f830112612a7457600080fd5b8135612a848482602086016129e2565b91505092915050565b600081359050612a9c81613647565b92915050565b600060208284031215612ab457600080fd5b6000612ac284828501612a8d565b91505092915050565b60008060408385031215612ade57600080fd5b6000612aec85828601612a8d565b9250506020612afd85828601612a4e565b9150509250929050565b60008060408385031215612b1a57600080fd5b6000612b2885828601612a8d565b925050602083013567ffffffffffffffff811115612b4557600080fd5b612b5185828601612a63565b9150509250929050565b6000612b678383612b73565b60208301905092915050565b612b7c8161323c565b82525050565b612b8b8161323c565b82525050565b6000612b9c826130ed565b612ba68185613105565b9350612bb1836130dd565b8060005b83811015612be2578151612bc98882612b5b565b9750612bd4836130f8565b925050600181019050612bb5565b5085935050505092915050565b612bf88161324e565b82525050565b612c078161325a565b82525050565b6000612c1a600f83613116565b9150612c25826133a6565b602082019050919050565b6000612c3d601583613116565b9150612c48826133cf565b602082019050919050565b6000612c60601283613116565b9150612c6b826133f8565b602082019050919050565b6000612c83601b83613116565b9150612c8e82613421565b602082019050919050565b6000612ca6601883613116565b9150612cb18261344a565b602082019050919050565b6000612cc9601783613116565b9150612cd482613473565b602082019050919050565b6000612cec601983613116565b9150612cf78261349c565b602082019050919050565b6000612d0f601d83613116565b9150612d1a826134c5565b602082019050919050565b6000612d32601783613116565b9150612d3d826134ee565b602082019050919050565b6000612d55601283613116565b9150612d6082613517565b602082019050919050565b6000612d78602283613116565b9150612d8382613540565b604082019050919050565b6000612d9b601183613116565b9150612da68261358f565b602082019050919050565b6000612dbe602b83613116565b9150612dc9826135b8565b604082019050919050565b6000612de1601483613116565b9150612dec82613607565b602082019050919050565b612e0081613284565b82525050565b6000602082019050612e1b6000830184612b82565b92915050565b600060a082019050612e366000830188612b82565b612e436020830187612df7565b612e506040830186612df7565b612e5d6060830185612df7565b612e6a6080830184612bef565b9695505050505050565b60006020820190508181036000830152612e8e8184612b91565b905092915050565b6000602082019050612eab6000830184612bfe565b92915050565b60006020820190508181036000830152612eca81612c0d565b9050919050565b60006020820190508181036000830152612eea81612c30565b9050919050565b60006020820190508181036000830152612f0a81612c53565b9050919050565b60006020820190508181036000830152612f2a81612c76565b9050919050565b60006020820190508181036000830152612f4a81612c99565b9050919050565b60006020820190508181036000830152612f6a81612cbc565b9050919050565b60006020820190508181036000830152612f8a81612cdf565b9050919050565b60006020820190508181036000830152612faa81612d02565b9050919050565b60006020820190508181036000830152612fca81612d25565b9050919050565b60006020820190508181036000830152612fea81612d48565b9050919050565b6000602082019050818103600083015261300a81612d6b565b9050919050565b6000602082019050818103600083015261302a81612d8e565b9050919050565b6000602082019050818103600083015261304a81612db1565b9050919050565b6000602082019050818103600083015261306a81612dd4565b9050919050565b60006020820190506130866000830184612df7565b92915050565b60006130966130a7565b90506130a2828261328e565b919050565b6000604051905090565b600067ffffffffffffffff8211156130cc576130cb613366565b5b602082029050602081019050919050565b6000819050602082019050919050565b600081519050919050565b6000602082019050919050565b600082825260208201905092915050565b600082825260208201905092915050565b600061313282613284565b915061313d83613284565b9250827fffffffffffffffffffffffffffffffffffffffffffffffffffffffffffffffff0382111561317257613171613308565b5b828201905092915050565b600061318882613284565b915061319383613284565b9250826131a3576131a2613337565b5b828204905092915050565b60006131b982613284565b91506131c483613284565b9250817fffffffffffffffffffffffffffffffffffffffffffffffffffffffffffffffff04831182151516156131fd576131fc613308565b5b828202905092915050565b600061321382613284565b915061321e83613284565b92508282101561323157613230613308565b5b828203905092915050565b600061324782613264565b9050919050565b60008115159050919050565b6000819050919050565b600073ffffffffffffffffffffffffffffffffffffffff82169050919050565b6000819050919050565b61329782613395565b810181811067ffffffffffffffff821117156132b6576132b5613366565b5b80604052505050565b60006132ca82613284565b91507fffffffffffffffffffffffffffffffffffffffffffffffffffffffffffffffff8214156132fd576132fc613308565b5b600182019050919050565b7f4e487b7100000000000000000000000000000000000000000000000000000000600052601160045260246000fd5b7f4e487b7100000000000000000000000000000000000000000000000000000000600052601260045260246000fd5b7f4e487b7100000000000000000000000000000000000000000000000000000000600052604160045260246000fd5b6000601f19601f8301169050919050565b7f4e6f207375636820766f74696e67210000000000000000000000000000000000600082015250565b7f596f7520617265206e6f7420616e206f776e6572210000000000000000000000600082015250565b7f5468697320766f7465206973206f766572210000000000000000000000000000600082015250565b7f596f752063616e7420766f746520666f7220796f757273656c66210000000000600082015250565b7f43616e742066696e69736820766f6974696e6720796574210000000000000000600082015250565b7f596f75206861766520616c726561647920766f74656421000000000000000000600082015250565b7f43616e74207769746864726177206e756c6c2076616c75652100000000000000600082015250565b7f56616c7565206973206f7574206f6620667265652062616c616e636521000000600082015250565b7f496e636f727265637420766f74696e6720707269736521000000000000000000600082015250565b7f4e6f20737563682063616e646964617465210000000000000000000000000000600082015250565b7f4d7573742068617665206174206c656173742074776f2063616e64696461746560008201527f7321000000000000000000000000000000000000000000000000000000000000602082015250565b7f566f74696e67206e6f7420666f756e6421000000000000000000000000000000600082015250565b7f446f6e7420757365206475706c696361746573207768656e20616464696e672060008201527f63616e6469646174657321000000000000000000000000000000000000000000602082015250565b7f5468697320696e6465782069732074616b656e21000000000000000000000000600082015250565b6136398161323c565b811461364457600080fd5b50565b61365081613284565b811461365b57600080fd5b5056fea26469706673582212207afb7b65b9153bc98350d1daee541c0f73643bf162031b16c541d1c05e1138f464736f6c63430008040033",
          "opcodes": "PUSH1 0x80 PUSH1 0x40 MSTORE PUSH7 0x2386F26FC10000 PUSH1 0x2 SSTORE PUSH1 0xA PUSH1 0x3 SSTORE CALLVALUE DUP1 ISZERO PUSH3 0x21 JUMPI PUSH1 0x0 DUP1 REVERT JUMPDEST POP PUSH1 0x40 MLOAD PUSH3 0x38A8 CODESIZE SUB DUP1 PUSH3 0x38A8 DUP4 CODECOPY DUP2 DUP2 ADD PUSH1 0x40 MSTORE DUP2 ADD SWAP1 PUSH3 0x47 SWAP2 SWAP1 PUSH3 0x1B4 JUMP JUMPDEST PUSH3 0x7B PUSH32 0x8F7FF236F3833984BDDF0244F083CFFFB7BAA4FA2A3D976E5577980206425D85 PUSH1 0x0 SHL PUSH3 0x19A PUSH1 0x20 SHL PUSH1 0x20 SHR JUMP JUMPDEST PUSH3 0xAF PUSH32 0xAB1F658B733AB8400249DDA1AC1992518D2D0F9B1E156A7F93BD58AF3302F610 PUSH1 0x0 SHL PUSH3 0x19A PUSH1 0x20 SHL PUSH1 0x20 SHR JUMP JUMPDEST PUSH3 0xE3 PUSH32 0x46A4AADA76813741A1CA1EA8FFFCC72DFE47F58EC7F9A90F3A17EB0BCD86BFE8 PUSH1 0x0 SHL PUSH3 0x19A PUSH1 0x20 SHL PUSH1 0x20 SHR JUMP JUMPDEST CALLER PUSH1 0x5 PUSH1 0x0 PUSH2 0x100 EXP DUP2 SLOAD DUP2 PUSH20 0xFFFFFFFFFFFFFFFFFFFFFFFFFFFFFFFFFFFFFFFF MUL NOT AND SWAP1 DUP4 PUSH20 0xFFFFFFFFFFFFFFFFFFFFFFFFFFFFFFFFFFFFFFFF AND MUL OR SWAP1 SSTORE POP PUSH3 0x158 PUSH32 0x6936ECDA9D8916B72B7B9F40D80017295427DF88BAACEA4B6473343C9C89650B PUSH1 0x0 SHL PUSH3 0x19A PUSH1 0x20 SHL PUSH1 0x20 SHR JUMP JUMPDEST PUSH3 0x18C PUSH32 0x4861CFA06BDA1343033C3FA7A35685FF6723278E4564FE55D7BB5A2C89E09165 PUSH1 0x0 SHL PUSH3 0x19A PUSH1 0x20 SHL PUSH1 0x20 SHR JUMP JUMPDEST DUP1 PUSH1 0x1 DUP2 SWAP1 SSTORE POP POP PUSH3 0x204 JUMP JUMPDEST POP JUMP JUMPDEST PUSH1 0x0 DUP2 MLOAD SWAP1 POP PUSH3 0x1AE DUP2 PUSH3 0x1EA JUMP JUMPDEST SWAP3 SWAP2 POP POP JUMP JUMPDEST PUSH1 0x0 PUSH1 0x20 DUP3 DUP5 SUB SLT ISZERO PUSH3 0x1C7 JUMPI PUSH1 0x0 DUP1 REVERT JUMPDEST PUSH1 0x0 PUSH3 0x1D7 DUP5 DUP3 DUP6 ADD PUSH3 0x19D JUMP JUMPDEST SWAP2 POP POP SWAP3 SWAP2 POP POP JUMP JUMPDEST PUSH1 0x0 DUP2 SWAP1 POP SWAP2 SWAP1 POP JUMP JUMPDEST PUSH3 0x1F5 DUP2 PUSH3 0x1E0 JUMP JUMPDEST DUP2 EQ PUSH3 0x201 JUMPI PUSH1 0x0 DUP1 REVERT JUMPDEST POP JUMP JUMPDEST PUSH2 0x3694 DUP1 PUSH3 0x214 PUSH1 0x0 CODECOPY PUSH1 0x0 RETURN INVALID PUSH1 0x80 PUSH1 0x40 MSTORE PUSH1 0x4 CALLDATASIZE LT PUSH2 0xDD JUMPI PUSH1 0x0 CALLDATALOAD PUSH1 0xE0 SHR DUP1 PUSH4 0x4129B2C9 GT PUSH2 0x7F JUMPI DUP1 PUSH4 0x860C851A GT PUSH2 0x59 JUMPI DUP1 PUSH4 0x860C851A EQ PUSH2 0x2CB JUMPI DUP1 PUSH4 0xABE7C08E EQ PUSH2 0x2F6 JUMPI DUP1 PUSH4 0xD6E20A65 EQ PUSH2 0x31F JUMPI DUP1 PUSH4 0xE8C58763 EQ PUSH2 0x348 JUMPI PUSH2 0xDD JUMP JUMPDEST DUP1 PUSH4 0x4129B2C9 EQ PUSH2 0x210 JUMPI DUP1 PUSH4 0x68197360 EQ PUSH2 0x24D JUMPI DUP1 PUSH4 0x7F4807A1 EQ PUSH2 0x28A JUMPI PUSH2 0xDD JUMP JUMPDEST DUP1 PUSH4 0x25185D3E GT PUSH2 0xBB JUMPI DUP1 PUSH4 0x25185D3E EQ PUSH2 0x154 JUMPI DUP1 PUSH4 0x2E1A7D4D EQ PUSH2 0x17F JUMPI DUP1 PUSH4 0x3A4B4532 EQ PUSH2 0x1A8 JUMPI DUP1 PUSH4 0x3E39A7A5 EQ PUSH2 0x1D3 JUMPI PUSH2 0xDD JUMP JUMPDEST DUP1 PUSH4 0x2D947EF EQ PUSH2 0xE2 JUMPI DUP1 PUSH4 0x12065FE0 EQ PUSH2 0xFE JUMPI DUP1 PUSH4 0x132002FC EQ PUSH2 0x129 JUMPI JUMPDEST PUSH1 0x0 DUP1 REVERT JUMPDEST PUSH2 0xFC PUSH1 0x4 DUP1 CALLDATASIZE SUB DUP2 ADD SWAP1 PUSH2 0xF7 SWAP2 SWAP1 PUSH2 0x2ACB JUMP JUMPDEST PUSH2 0x385 JUMP JUMPDEST STOP JUMPDEST CALLVALUE DUP1 ISZERO PUSH2 0x10A JUMPI PUSH1 0x0 DUP1 REVERT JUMPDEST POP PUSH2 0x113 PUSH2 0xF92 JUMP JUMPDEST PUSH1 0x40 MLOAD PUSH2 0x120 SWAP2 SWAP1 PUSH2 0x3071 JUMP JUMPDEST PUSH1 0x40 MLOAD DUP1 SWAP2 SUB SWAP1 RETURN JUMPDEST CALLVALUE DUP1 ISZERO PUSH2 0x135 JUMPI PUSH1 0x0 DUP1 REVERT JUMPDEST POP PUSH2 0x13E PUSH2 0x101E JUMP JUMPDEST PUSH1 0x40 MLOAD PUSH2 0x14B SWAP2 SWAP1 PUSH2 0x3071 JUMP JUMPDEST PUSH1 0x40 MLOAD DUP1 SWAP2 SUB SWAP1 RETURN JUMPDEST CALLVALUE DUP1 ISZERO PUSH2 0x160 JUMPI PUSH1 0x0 DUP1 REVERT JUMPDEST POP PUSH2 0x169 PUSH2 0x1024 JUMP JUMPDEST PUSH1 0x40 MLOAD PUSH2 0x176 SWAP2 SWAP1 PUSH2 0x3071 JUMP JUMPDEST PUSH1 0x40 MLOAD DUP1 SWAP2 SUB SWAP1 RETURN JUMPDEST CALLVALUE DUP1 ISZERO PUSH2 0x18B JUMPI PUSH1 0x0 DUP1 REVERT JUMPDEST POP PUSH2 0x1A6 PUSH1 0x4 DUP1 CALLDATASIZE SUB DUP2 ADD SWAP1 PUSH2 0x1A1 SWAP2 SWAP1 PUSH2 0x2AA2 JUMP JUMPDEST PUSH2 0x102A JUMP JUMPDEST STOP JUMPDEST CALLVALUE DUP1 ISZERO PUSH2 0x1B4 JUMPI PUSH1 0x0 DUP1 REVERT JUMPDEST POP PUSH2 0x1BD PUSH2 0x14CE JUMP JUMPDEST PUSH1 0x40 MLOAD PUSH2 0x1CA SWAP2 SWAP1 PUSH2 0x3071 JUMP JUMPDEST PUSH1 0x40 MLOAD DUP1 SWAP2 SUB SWAP1 RETURN JUMPDEST CALLVALUE DUP1 ISZERO PUSH2 0x1DF JUMPI PUSH1 0x0 DUP1 REVERT JUMPDEST POP PUSH2 0x1FA PUSH1 0x4 DUP1 CALLDATASIZE SUB DUP2 ADD SWAP1 PUSH2 0x1F5 SWAP2 SWAP1 PUSH2 0x2AA2 JUMP JUMPDEST PUSH2 0x14D4 JUMP JUMPDEST PUSH1 0x40 MLOAD PUSH2 0x207 SWAP2 SWAP1 PUSH2 0x2E74 JUMP JUMPDEST PUSH1 0x40 MLOAD DUP1 SWAP2 SUB SWAP1 RETURN JUMPDEST CALLVALUE DUP1 ISZERO PUSH2 0x21C JUMPI PUSH1 0x0 DUP1 REVERT JUMPDEST POP PUSH2 0x237 PUSH1 0x4 DUP1 CALLDATASIZE SUB DUP2 ADD SWAP1 PUSH2 0x232 SWAP2 SWAP1 PUSH2 0x2AA2 JUMP JUMPDEST PUSH2 0x15FB JUMP JUMPDEST PUSH1 0x40 MLOAD PUSH2 0x244 SWAP2 SWAP1 PUSH2 0x2E06 JUMP JUMPDEST PUSH1 0x40 MLOAD DUP1 SWAP2 SUB SWAP1 RETURN JUMPDEST CALLVALUE DUP1 ISZERO PUSH2 0x259 JUMPI PUSH1 0x0 DUP1 REVERT JUMPDEST POP PUSH2 0x274 PUSH1 0x4 DUP1 CALLDATASIZE SUB DUP2 ADD SWAP1 PUSH2 0x26F SWAP2 SWAP1 PUSH2 0x2ACB JUMP JUMPDEST PUSH2 0x16BE JUMP JUMPDEST PUSH1 0x40 MLOAD PUSH2 0x281 SWAP2 SWAP1 PUSH2 0x3071 JUMP JUMPDEST PUSH1 0x40 MLOAD DUP1 SWAP2 SUB SWAP1 RETURN JUMPDEST CALLVALUE DUP1 ISZERO PUSH2 0x296 JUMPI PUSH1 0x0 DUP1 REVERT JUMPDEST POP PUSH2 0x2B1 PUSH1 0x4 DUP1 CALLDATASIZE SUB DUP2 ADD SWAP1 PUSH2 0x2AC SWAP2 SWAP1 PUSH2 0x2AA2 JUMP JUMPDEST PUSH2 0x17A2 JUMP JUMPDEST PUSH1 0x40 MLOAD PUSH2 0x2C2 SWAP6 SWAP5 SWAP4 SWAP3 SWAP2 SWAP1 PUSH2 0x2E21 JUMP JUMPDEST PUSH1 0x40 MLOAD DUP1 SWAP2 SUB SWAP1 RETURN JUMPDEST CALLVALUE DUP1 ISZERO PUSH2 0x2D7 JUMPI PUSH1 0x0 DUP1 REVERT JUMPDEST POP PUSH2 0x2E0 PUSH2 0x1805 JUMP JUMPDEST PUSH1 0x40 MLOAD PUSH2 0x2ED SWAP2 SWAP1 PUSH2 0x3071 JUMP JUMPDEST PUSH1 0x40 MLOAD DUP1 SWAP2 SUB SWAP1 RETURN JUMPDEST CALLVALUE DUP1 ISZERO PUSH2 0x302 JUMPI PUSH1 0x0 DUP1 REVERT JUMPDEST POP PUSH2 0x31D PUSH1 0x4 DUP1 CALLDATASIZE SUB DUP2 ADD SWAP1 PUSH2 0x318 SWAP2 SWAP1 PUSH2 0x2AA2 JUMP JUMPDEST PUSH2 0x180B JUMP JUMPDEST STOP JUMPDEST CALLVALUE DUP1 ISZERO PUSH2 0x32B JUMPI PUSH1 0x0 DUP1 REVERT JUMPDEST POP PUSH2 0x346 PUSH1 0x4 DUP1 CALLDATASIZE SUB DUP2 ADD SWAP1 PUSH2 0x341 SWAP2 SWAP1 PUSH2 0x2B07 JUMP JUMPDEST PUSH2 0x1ECA JUMP JUMPDEST STOP JUMPDEST CALLVALUE DUP1 ISZERO PUSH2 0x354 JUMPI PUSH1 0x0 DUP1 REVERT JUMPDEST POP PUSH2 0x36F PUSH1 0x4 DUP1 CALLDATASIZE SUB DUP2 ADD SWAP1 PUSH2 0x36A SWAP2 SWAP1 PUSH2 0x2AA2 JUMP JUMPDEST PUSH2 0x27BC JUMP JUMPDEST PUSH1 0x40 MLOAD PUSH2 0x37C SWAP2 SWAP1 PUSH2 0x2E96 JUMP JUMPDEST PUSH1 0x40 MLOAD DUP1 SWAP2 SUB SWAP1 RETURN JUMPDEST DUP2 DUP2 PUSH2 0x3B3 PUSH32 0xDFC592934724453DA185FB8E8874A4CDCEBD126166B3B0B9B7EE134F9A8C2366 PUSH1 0x0 SHL PUSH2 0x286A JUMP JUMPDEST PUSH2 0x3DF PUSH32 0x843DB57C97B23E5B67E6A9BD7FC2DF039DDB4EBC731AF57AB9F1ABA828D4BD8F PUSH1 0x0 SHL PUSH2 0x286A JUMP JUMPDEST PUSH2 0x40B PUSH32 0x57E362C88F6F3D5D8FA04DE4FF0BBB8E48F39C87138E977FEA858F6A5DABEB31 PUSH1 0x0 SHL PUSH2 0x286A JUMP JUMPDEST PUSH2 0x437 PUSH32 0xCCF5412143AADB95A9969FE2245D676305A6127C93B292ED2EE8A98E756CA161 PUSH1 0x0 SHL PUSH2 0x286A JUMP JUMPDEST PUSH1 0x0 DUP1 DUP4 DUP2 MSTORE PUSH1 0x20 ADD SWAP1 DUP2 MSTORE PUSH1 0x20 ADD PUSH1 0x0 KECCAK256 PUSH1 0x7 ADD PUSH1 0x0 SWAP1 SLOAD SWAP1 PUSH2 0x100 EXP SWAP1 DIV PUSH1 0xFF AND PUSH2 0x499 JUMPI PUSH1 0x40 MLOAD PUSH32 0x8C379A000000000000000000000000000000000000000000000000000000000 DUP2 MSTORE PUSH1 0x4 ADD PUSH2 0x490 SWAP1 PUSH2 0x2EB1 JUMP JUMPDEST PUSH1 0x40 MLOAD DUP1 SWAP2 SUB SWAP1 REVERT JUMPDEST PUSH2 0x4C5 PUSH32 0x4F188AF283A3812465DA23F6757B93498C4C5ADE911FCA1A40FCF9F3C319FCA2 PUSH1 0x0 SHL PUSH2 0x286A JUMP JUMPDEST PUSH2 0x4F1 PUSH32 0x474A6AAA5F2E16FB87C035A8D92D4E75D05D8BFB341ACC3F597BF46783D10885 PUSH1 0x0 SHL PUSH2 0x286A JUMP JUMPDEST PUSH2 0x51D PUSH32 0xF7433932E506B110999CD0BF8E58FCEB6A923605FCCCD47C7E595D79B72AF65D PUSH1 0x0 SHL PUSH2 0x286A JUMP JUMPDEST PUSH2 0x549 PUSH32 0x3AC107DA5310104F8FEC1B976A61349783ABB3F64EDDCA123031CDEAA503A508 PUSH1 0x0 SHL PUSH2 0x286A JUMP JUMPDEST TIMESTAMP PUSH1 0x0 DUP1 DUP5 DUP2 MSTORE PUSH1 0x20 ADD SWAP1 DUP2 MSTORE PUSH1 0x20 ADD PUSH1 0x0 KECCAK256 PUSH1 0x6 ADD SLOAD GT PUSH2 0x5A0 JUMPI PUSH1 0x40 MLOAD PUSH32 0x8C379A000000000000000000000000000000000000000000000000000000000 DUP2 MSTORE PUSH1 0x4 ADD PUSH2 0x597 SWAP1 PUSH2 0x2EF1 JUMP JUMPDEST PUSH1 0x40 MLOAD DUP1 SWAP2 SUB SWAP1 REVERT JUMPDEST PUSH2 0x5CC PUSH32 0x8C0210D8C8C557988162FA0FCB32645F477E4FD18A00B1B63290A0F6F40E5A4F PUSH1 0x0 SHL PUSH2 0x286A JUMP JUMPDEST PUSH2 0x5F8 PUSH32 0xE84C7D02CEF2A7A050F9B23C4CF9918AB953FBAD5EC783629C5BE56AB20C77E8 PUSH1 0x0 SHL PUSH2 0x286A JUMP JUMPDEST PUSH2 0x624 PUSH32 0xDD58F7B93A19E9450ADE180FCCEEA87F10AD0ED0BDDBFAC9B05BDA4B88D0C16E PUSH1 0x0 SHL PUSH2 0x286A JUMP JUMPDEST PUSH2 0x650 PUSH32 0x89C4936121484632C17C2EB3ED766FD84C92FB35DB9F0B0B935B4FAE5BF39189 PUSH1 0x0 SHL PUSH2 0x286A JUMP JUMPDEST DUP1 PUSH20 0xFFFFFFFFFFFFFFFFFFFFFFFFFFFFFFFFFFFFFFFF AND CALLER PUSH20 0xFFFFFFFFFFFFFFFFFFFFFFFFFFFFFFFFFFFFFFFF AND EQ ISZERO PUSH2 0x6BF JUMPI PUSH1 0x40 MLOAD PUSH32 0x8C379A000000000000000000000000000000000000000000000000000000000 DUP2 MSTORE PUSH1 0x4 ADD PUSH2 0x6B6 SWAP1 PUSH2 0x2F11 JUMP JUMPDEST PUSH1 0x40 MLOAD DUP1 SWAP2 SUB SWAP1 REVERT JUMPDEST PUSH2 0x6EB PUSH32 0x3BAD41794ED7E9BFFD053F5A53E2CE08360E562D54B25C56308CE2C458046C9C PUSH1 0x0 SHL PUSH2 0x286A JUMP JUMPDEST PUSH2 0x717 PUSH32 0x8383744722925C20BC89774C8CDA3346EAD04A3DE17D1FC7C5D10F733562BDC6 PUSH1 0x0 SHL PUSH2 0x286A JUMP JUMPDEST PUSH2 0x743 PUSH32 0xDD7C23039C5CFD0DE197DD04AE14987CBA1C6ACA8DE66A0C2C9A136615917B22 PUSH1 0x0 SHL PUSH2 0x286A JUMP JUMPDEST PUSH2 0x76F PUSH32 0x508A9D4D92BC6503961B0330FEB5ABA661C7BA0AF8B9EA79938C97CBC259B9E1 PUSH1 0x0 SHL PUSH2 0x286A JUMP JUMPDEST PUSH1 0x0 DUP1 DUP4 DUP2 MSTORE PUSH1 0x20 ADD SWAP1 DUP2 MSTORE PUSH1 0x20 ADD PUSH1 0x0 KECCAK256 PUSH1 0x1 ADD PUSH1 0x0 DUP3 PUSH20 0xFFFFFFFFFFFFFFFFFFFFFFFFFFFFFFFFFFFFFFFF AND PUSH20 0xFFFFFFFFFFFFFFFFFFFFFFFFFFFFFFFFFFFFFFFF AND DUP2 MSTORE PUSH1 0x20 ADD SWAP1 DUP2 MSTORE PUSH1 0x20 ADD PUSH1 0x0 KECCAK256 PUSH1 0x1 ADD PUSH1 0x0 SWAP1 SLOAD SWAP1 PUSH2 0x100 EXP SWAP1 DIV PUSH1 0xFF AND PUSH2 0x811 JUMPI PUSH1 0x40 MLOAD PUSH32 0x8C379A000000000000000000000000000000000000000000000000000000000 DUP2 MSTORE PUSH1 0x4 ADD PUSH2 0x808 SWAP1 PUSH2 0x2FD1 JUMP JUMPDEST PUSH1 0x40 MLOAD DUP1 SWAP2 SUB SWAP1 REVERT JUMPDEST PUSH2 0x83D PUSH32 0xB7D076B057978EC309C70533A29C238D470861C5CF6C1A3AAB79CD94803481B3 PUSH1 0x0 SHL PUSH2 0x286A JUMP JUMPDEST PUSH2 0x869 PUSH32 0x7C30536F7FF718CA7D95A5B66D183B399133C440F1E611CA0DC5604B3A031DDC PUSH1 0x0 SHL PUSH2 0x286A JUMP JUMPDEST PUSH2 0x895 PUSH32 0x4EEB60B7007B449DD3D9AE7B4F022540A91CF2514738A35E113A3F916C5D7311 PUSH1 0x0 SHL PUSH2 0x286A JUMP JUMPDEST PUSH2 0x8C1 PUSH32 0x2A80211AE5361E719EDEA6875B5EAE8EE9E49D5BF4B47413CA878869E4364F81 PUSH1 0x0 SHL PUSH2 0x286A JUMP JUMPDEST PUSH1 0x2 SLOAD CALLVALUE EQ PUSH2 0x905 JUMPI PUSH1 0x40 MLOAD PUSH32 0x8C379A000000000000000000000000000000000000000000000000000000000 DUP2 MSTORE PUSH1 0x4 ADD PUSH2 0x8FC SWAP1 PUSH2 0x2FB1 JUMP JUMPDEST PUSH1 0x40 MLOAD DUP1 SWAP2 SUB SWAP1 REVERT JUMPDEST PUSH2 0x931 PUSH32 0xFB7A6402889A477FD8C9B3FA7F990D5F81D940BFD0A86F024A0CF603E38CFAFF PUSH1 0x0 SHL PUSH2 0x286A JUMP JUMPDEST PUSH2 0x95D PUSH32 0x2003DF7E55239BBE0810382AD85128BB317EBAC1113D2BDF575936106BCA63FA PUSH1 0x0 SHL PUSH2 0x286A JUMP JUMPDEST PUSH2 0x989 PUSH32 0xBFBC4B8FD85D9549D066F7638F206B78ED8B73BB921E4F95260B8B148BF84D71 PUSH1 0x0 SHL PUSH2 0x286A JUMP JUMPDEST PUSH2 0x9B5 PUSH32 0xD4046D480B1C3864109BDC335AFD997E5AFAA69309BDE7FE362CC1DD29E08EC PUSH1 0x0 SHL PUSH2 0x286A JUMP JUMPDEST PUSH1 0x0 PUSH20 0xFFFFFFFFFFFFFFFFFFFFFFFFFFFFFFFFFFFFFFFF AND PUSH1 0x0 DUP1 DUP5 DUP2 MSTORE PUSH1 0x20 ADD SWAP1 DUP2 MSTORE PUSH1 0x20 ADD PUSH1 0x0 KECCAK256 PUSH1 0x0 ADD PUSH1 0x0 CALLER PUSH20 0xFFFFFFFFFFFFFFFFFFFFFFFFFFFFFFFFFFFFFFFF AND PUSH20 0xFFFFFFFFFFFFFFFFFFFFFFFFFFFFFFFFFFFFFFFF AND DUP2 MSTORE PUSH1 0x20 ADD SWAP1 DUP2 MSTORE PUSH1 0x20 ADD PUSH1 0x0 KECCAK256 PUSH1 0x0 SWAP1 SLOAD SWAP1 PUSH2 0x100 EXP SWAP1 DIV PUSH20 0xFFFFFFFFFFFFFFFFFFFFFFFFFFFFFFFFFFFFFFFF AND PUSH20 0xFFFFFFFFFFFFFFFFFFFFFFFFFFFFFFFFFFFFFFFF AND EQ PUSH2 0xA96 JUMPI PUSH1 0x40 MLOAD PUSH32 0x8C379A000000000000000000000000000000000000000000000000000000000 DUP2 MSTORE PUSH1 0x4 ADD PUSH2 0xA8D SWAP1 PUSH2 0x2F51 JUMP JUMPDEST PUSH1 0x40 MLOAD DUP1 SWAP2 SUB SWAP1 REVERT JUMPDEST PUSH2 0xAC2 PUSH32 0x983043DCEC0B90562AF12BC667203EA2125EEBE6D22178E1DE33DA31BAD12C3D PUSH1 0x0 SHL PUSH2 0x286A JUMP JUMPDEST PUSH2 0xAEE PUSH32 0x43A870ECB37B9DA7D10DC6E80807558131870E9C652B5023D0F57F4C3031D0E2 PUSH1 0x0 SHL PUSH2 0x286A JUMP JUMPDEST PUSH2 0xB1A PUSH32 0x3A198AE6E3E3F78D59E20421429922050D50632A4762FC83C09F895917C2D8AE PUSH1 0x0 SHL PUSH2 0x286A JUMP JUMPDEST PUSH2 0xB46 PUSH32 0x9A90396B3D0B30E7908C6306442E2E9D76A2754E5ABCEDEC12903B358E4A4B9F PUSH1 0x0 SHL PUSH2 0x286A JUMP JUMPDEST PUSH1 0x0 DUP1 DUP6 DUP2 MSTORE PUSH1 0x20 ADD SWAP1 DUP2 MSTORE PUSH1 0x20 ADD PUSH1 0x0 KECCAK256 PUSH1 0x1 ADD PUSH1 0x0 DUP5 PUSH20 0xFFFFFFFFFFFFFFFFFFFFFFFFFFFFFFFFFFFFFFFF AND PUSH20 0xFFFFFFFFFFFFFFFFFFFFFFFFFFFFFFFFFFFFFFFF AND DUP2 MSTORE PUSH1 0x20 ADD SWAP1 DUP2 MSTORE PUSH1 0x20 ADD PUSH1 0x0 KECCAK256 PUSH1 0x0 ADD PUSH1 0x0 DUP2 SLOAD DUP1 SWAP3 SWAP2 SWAP1 PUSH2 0xBAC SWAP1 PUSH2 0x32BF JUMP JUMPDEST SWAP2 SWAP1 POP SSTORE POP PUSH2 0xBDD PUSH32 0xD6747678637C73016787C5DE4FC29AA74929E0408854D6CE30385AB971281F08 PUSH1 0x0 SHL PUSH2 0x286A JUMP JUMPDEST PUSH2 0xC09 PUSH32 0x4FC5505E5B318FAAED5426C7326997FC168066ECD9D7C357FB125670A28DB92 PUSH1 0x0 SHL PUSH2 0x286A JUMP JUMPDEST DUP3 PUSH1 0x0 DUP1 DUP7 DUP2 MSTORE PUSH1 0x20 ADD SWAP1 DUP2 MSTORE PUSH1 0x20 ADD PUSH1 0x0 KECCAK256 PUSH1 0x0 ADD PUSH1 0x0 CALLER PUSH20 0xFFFFFFFFFFFFFFFFFFFFFFFFFFFFFFFFFFFFFFFF AND PUSH20 0xFFFFFFFFFFFFFFFFFFFFFFFFFFFFFFFFFFFFFFFF AND DUP2 MSTORE PUSH1 0x20 ADD SWAP1 DUP2 MSTORE PUSH1 0x20 ADD PUSH1 0x0 KECCAK256 PUSH1 0x0 PUSH2 0x100 EXP DUP2 SLOAD DUP2 PUSH20 0xFFFFFFFFFFFFFFFFFFFFFFFFFFFFFFFFFFFFFFFF MUL NOT AND SWAP1 DUP4 PUSH20 0xFFFFFFFFFFFFFFFFFFFFFFFFFFFFFFFFFFFFFFFF AND MUL OR SWAP1 SSTORE POP PUSH2 0xCC6 PUSH32 0xA5263A9C34F39A969B1A04955B52C7CEE9AD11856E24266D3653915F6480BCB8 PUSH1 0x0 SHL PUSH2 0x286A JUMP JUMPDEST PUSH1 0x0 DUP1 DUP6 DUP2 MSTORE PUSH1 0x20 ADD SWAP1 DUP2 MSTORE PUSH1 0x20 ADD PUSH1 0x0 KECCAK256 PUSH1 0x4 ADD PUSH1 0x0 DUP2 SLOAD DUP1 SWAP3 SWAP2 SWAP1 PUSH2 0xCEC SWAP1 PUSH2 0x32BF JUMP JUMPDEST SWAP2 SWAP1 POP SSTORE POP PUSH2 0xD1D PUSH32 0x56500318ECF3E852FA53A7BAD07AB2E9D93B56ACE6C68EDCF2B2B60D7048F86 PUSH1 0x0 SHL PUSH2 0x286A JUMP JUMPDEST PUSH2 0xD49 PUSH32 0xD96CE6280C91703D0DDCB8333E229E840B0BE068D24F58CB49797193920745F9 PUSH1 0x0 SHL PUSH2 0x286A JUMP JUMPDEST PUSH1 0x0 DUP1 DUP6 DUP2 MSTORE PUSH1 0x20 ADD SWAP1 DUP2 MSTORE PUSH1 0x20 ADD PUSH1 0x0 KECCAK256 PUSH1 0x5 ADD SLOAD PUSH1 0x0 DUP1 DUP7 DUP2 MSTORE PUSH1 0x20 ADD SWAP1 DUP2 MSTORE PUSH1 0x20 ADD PUSH1 0x0 KECCAK256 PUSH1 0x1 ADD PUSH1 0x0 DUP6 PUSH20 0xFFFFFFFFFFFFFFFFFFFFFFFFFFFFFFFFFFFFFFFF AND PUSH20 0xFFFFFFFFFFFFFFFFFFFFFFFFFFFFFFFFFFFFFFFF AND DUP2 MSTORE PUSH1 0x20 ADD SWAP1 DUP2 MSTORE PUSH1 0x20 ADD PUSH1 0x0 KECCAK256 PUSH1 0x0 ADD SLOAD GT ISZERO PUSH2 0xF5F JUMPI PUSH2 0xDE7 PUSH32 0xE76EFB4A3B9A1CC0F2F417043059CF01773262540165C5DA931C4AE3D560CC16 PUSH1 0x0 SHL PUSH2 0x286A JUMP JUMPDEST PUSH2 0xE13 PUSH32 0x522C6E3A3DC394C8E48A85C94FD474B1AB352871CEEF0E10B8E8E6BCBE11AF96 PUSH1 0x0 SHL PUSH2 0x286A JUMP JUMPDEST PUSH2 0xE3F PUSH32 0x273D4AC68FA76CA0A396F6FAB8FA47CDD02CED62E5C40BE530A94C0A841E54F9 PUSH1 0x0 SHL PUSH2 0x286A JUMP JUMPDEST PUSH1 0x0 DUP1 DUP6 DUP2 MSTORE PUSH1 0x20 ADD SWAP1 DUP2 MSTORE PUSH1 0x20 ADD PUSH1 0x0 KECCAK256 PUSH1 0x1 ADD PUSH1 0x0 DUP5 PUSH20 0xFFFFFFFFFFFFFFFFFFFFFFFFFFFFFFFFFFFFFFFF AND PUSH20 0xFFFFFFFFFFFFFFFFFFFFFFFFFFFFFFFFFFFFFFFF AND DUP2 MSTORE PUSH1 0x20 ADD SWAP1 DUP2 MSTORE PUSH1 0x20 ADD PUSH1 0x0 KECCAK256 PUSH1 0x0 ADD SLOAD PUSH1 0x0 DUP1 DUP7 DUP2 MSTORE PUSH1 0x20 ADD SWAP1 DUP2 MSTORE PUSH1 0x20 ADD PUSH1 0x0 KECCAK256 PUSH1 0x5 ADD DUP2 SWAP1 SSTORE POP PUSH2 0xEDA PUSH32 0xA704029BD2E8FA2C0AB47A097912551C061256BE56646C8FB6F0F1DA2BF8E1BD PUSH1 0x0 SHL PUSH2 0x286A JUMP JUMPDEST PUSH2 0xF06 PUSH32 0xB8E72B576D1B7ADBC6EAEE1B9AA1F4999259BE188D63D155510029F37EB1CDD4 PUSH1 0x0 SHL PUSH2 0x286A JUMP JUMPDEST DUP3 PUSH1 0x0 DUP1 DUP7 DUP2 MSTORE PUSH1 0x20 ADD SWAP1 DUP2 MSTORE PUSH1 0x20 ADD PUSH1 0x0 KECCAK256 PUSH1 0x3 ADD PUSH1 0x0 PUSH2 0x100 EXP DUP2 SLOAD DUP2 PUSH20 0xFFFFFFFFFFFFFFFFFFFFFFFFFFFFFFFFFFFFFFFF MUL NOT AND SWAP1 DUP4 PUSH20 0xFFFFFFFFFFFFFFFFFFFFFFFFFFFFFFFFFFFFFFFF AND MUL OR SWAP1 SSTORE POP PUSH2 0xF8C JUMP JUMPDEST PUSH2 0xF8B PUSH32 0xC4D04C9FB7E24E5A6205BE38F5711DE7D3781A410EC30A2B2ADEC2BBF5DB0879 PUSH1 0x0 SHL PUSH2 0x286A JUMP JUMPDEST JUMPDEST POP POP POP POP JUMP JUMPDEST PUSH1 0x0 PUSH2 0xFC0 PUSH32 0xEFF66AD69A6827F065E88B766D771CDA11E4A6AE66A6D10CE4267B6099E0AFD5 PUSH1 0x0 SHL PUSH2 0x286A JUMP JUMPDEST PUSH2 0xFEC PUSH32 0xA2DB813DE5A2DD27F1B147CB91AE52707D847373D3377A3841801A26E264268F PUSH1 0x0 SHL PUSH2 0x286A JUMP JUMPDEST PUSH2 0x1018 PUSH32 0xCD7E9FC9D4873D5F35175CA80F88EB24AED987B62E2C99FB1E1F5967016E8D34 PUSH1 0x0 SHL PUSH2 0x286A JUMP JUMPDEST SELFBALANCE SWAP1 POP SWAP1 JUMP JUMPDEST PUSH1 0x1 SLOAD DUP2 JUMP JUMPDEST PUSH1 0x4 SLOAD DUP2 JUMP JUMPDEST PUSH2 0x1056 PUSH32 0x3C7AF0C7F8F4B479781275AACA4275A784B68EAC9DED6989E63650B17E069775 PUSH1 0x0 SHL PUSH2 0x286A JUMP JUMPDEST PUSH2 0x1082 PUSH32 0x17DA741F75A73C8229437BA40A752A7C9B7A9844C27697998A2CF67876BD4E44 PUSH1 0x0 SHL PUSH2 0x286A JUMP JUMPDEST PUSH2 0x10AE PUSH32 0x708B060130CB53E117BC0B61109E4CE774E56644F8C46D3BE7993B4B10405C72 PUSH1 0x0 SHL PUSH2 0x286A JUMP JUMPDEST PUSH2 0x10DA PUSH32 0x237277423F050FF67D8F5E90B324FF391216C753B605CA9A929F14632C2C19E PUSH1 0x0 SHL PUSH2 0x286A JUMP JUMPDEST PUSH1 0x5 PUSH1 0x0 SWAP1 SLOAD SWAP1 PUSH2 0x100 EXP SWAP1 DIV PUSH20 0xFFFFFFFFFFFFFFFFFFFFFFFFFFFFFFFFFFFFFFFF AND PUSH20 0xFFFFFFFFFFFFFFFFFFFFFFFFFFFFFFFFFFFFFFFF AND CALLER PUSH20 0xFFFFFFFFFFFFFFFFFFFFFFFFFFFFFFFFFFFFFFFF AND EQ PUSH2 0x116A JUMPI PUSH1 0x40 MLOAD PUSH32 0x8C379A000000000000000000000000000000000000000000000000000000000 DUP2 MSTORE PUSH1 0x4 ADD PUSH2 0x1161 SWAP1 PUSH2 0x2ED1 JUMP JUMPDEST PUSH1 0x40 MLOAD DUP1 SWAP2 SUB SWAP1 REVERT JUMPDEST PUSH2 0x1195 PUSH31 0xA21A7544B7E25C140C4F1E07126A91827C34D641103B06ACF1AA55DEB3C9D0 PUSH1 0x0 SHL PUSH2 0x286A JUMP JUMPDEST PUSH2 0x11C1 PUSH32 0x528237A7031718F8F40714F253A1B4B45E821B47D24A7CAD2EA3DF146B084F38 PUSH1 0x0 SHL PUSH2 0x286A JUMP JUMPDEST PUSH2 0x11ED PUSH32 0xF990281323A00CE0CEAF09B20F62857F9244F5B9EB218D6DC6A39A89ABE72FCA PUSH1 0x0 SHL PUSH2 0x286A JUMP JUMPDEST PUSH2 0x1219 PUSH32 0xD04EC62D7B3D2DCB44C011F5B289881073058039E67A643DE4130C5DBC72193C PUSH1 0x0 SHL PUSH2 0x286A JUMP JUMPDEST PUSH2 0x1245 PUSH32 0x94B67186AF581A8C5C35FAE0E449ECD5D47AD32179D13DDDA1364EC6270C1B4 PUSH1 0x0 SHL PUSH2 0x286A JUMP JUMPDEST PUSH2 0x1271 PUSH32 0x836BAF79D905CAD5E2230D583369E383FBD0F7F3B4FDE67AA4805297AFDB6DF9 PUSH1 0x0 SHL PUSH2 0x286A JUMP JUMPDEST PUSH1 0x4 SLOAD DUP2 GT ISZERO PUSH2 0x12B6 JUMPI PUSH1 0x40 MLOAD PUSH32 0x8C379A000000000000000000000000000000000000000000000000000000000 DUP2 MSTORE PUSH1 0x4 ADD PUSH2 0x12AD SWAP1 PUSH2 0x2F91 JUMP JUMPDEST PUSH1 0x40 MLOAD DUP1 SWAP2 SUB SWAP1 REVERT JUMPDEST PUSH2 0x12E2 PUSH32 0x1893F5AA8F03842F92485FC3BFE746959DF4785F998E010E296BB63C5F2C65D7 PUSH1 0x0 SHL PUSH2 0x286A JUMP JUMPDEST PUSH2 0x130E PUSH32 0x1D6B2B9E6BD212199E3AA8841CDDE9CEB8553D8319A1D1F43598E6B428DFD27F PUSH1 0x0 SHL PUSH2 0x286A JUMP JUMPDEST PUSH2 0x133A PUSH32 0x95D7AE6E872F2197954A501046A9FFECEA1B1B07995A2D40DA4FA75230AE2E65 PUSH1 0x0 SHL PUSH2 0x286A JUMP JUMPDEST PUSH2 0x1366 PUSH32 0x99B78F03A0E62799FEA02F9B820FBF004FE97E0F1083F288AA210B9E9FB4B61 PUSH1 0x0 SHL PUSH2 0x286A JUMP JUMPDEST PUSH1 0x0 DUP2 EQ ISZERO PUSH2 0x13AA JUMPI PUSH1 0x40 MLOAD PUSH32 0x8C379A000000000000000000000000000000000000000000000000000000000 DUP2 MSTORE PUSH1 0x4 ADD PUSH2 0x13A1 SWAP1 PUSH2 0x2F71 JUMP JUMPDEST PUSH1 0x40 MLOAD DUP1 SWAP2 SUB SWAP1 REVERT JUMPDEST PUSH2 0x13D6 PUSH32 0x7ADEE266636832CE72D4747A14F04F6DBF87F01130B43791B3D39A3FEC1D7301 PUSH1 0x0 SHL PUSH2 0x286A JUMP JUMPDEST PUSH2 0x1402 PUSH32 0xFB8F9509C560A223E1744080A518BB06517D3ED5DA056A1F6315ED365656ADB4 PUSH1 0x0 SHL PUSH2 0x286A JUMP JUMPDEST PUSH2 0x142E PUSH32 0x5151A0CDE136FB5DABFAF8C264F5153ED1B9487209684CD235ED6CE0E629505B PUSH1 0x0 SHL PUSH2 0x286A JUMP JUMPDEST PUSH2 0x145A PUSH1 0x5 PUSH1 0x0 SWAP1 SLOAD SWAP1 PUSH2 0x100 EXP SWAP1 DIV PUSH20 0xFFFFFFFFFFFFFFFFFFFFFFFFFFFFFFFFFFFFFFFF AND DUP3 PUSH2 0x286D JUMP JUMPDEST PUSH2 0x1486 PUSH32 0xC13D17A52773A55B0A262F255961AB726FC4765CD48999FD086ED1C6AE6B1D9C PUSH1 0x0 SHL PUSH2 0x286A JUMP JUMPDEST PUSH2 0x14B2 PUSH32 0x62EE2B4474EE35288029FD6324F8BDFE07095F2C75211C6925803D93468AAFD0 PUSH1 0x0 SHL PUSH2 0x286A JUMP JUMPDEST DUP1 PUSH1 0x4 PUSH1 0x0 DUP3 DUP3 SLOAD PUSH2 0x14C4 SWAP2 SWAP1 PUSH2 0x3208 JUMP JUMPDEST SWAP3 POP POP DUP2 SWAP1 SSTORE POP POP JUMP JUMPDEST PUSH1 0x3 SLOAD DUP2 JUMP JUMPDEST PUSH1 0x60 PUSH2 0x1502 PUSH32 0xA0EB339A724B190EDE9FB2CB043798D935048A1B658465CFDA20B02156D506D PUSH1 0x0 SHL PUSH2 0x286A JUMP JUMPDEST PUSH2 0x152E PUSH32 0x5C1A7B70ED91B180878C8539DF91720060A4C19A8B963BC21CC44C3E2B20FFF7 PUSH1 0x0 SHL PUSH2 0x286A JUMP JUMPDEST PUSH2 0x155A PUSH32 0xB66BE82CE9D6E92E5E8336CBA20DE1612992ECCDA65E437B8B9EC785AC33BDFE PUSH1 0x0 SHL PUSH2 0x286A JUMP JUMPDEST PUSH1 0x0 DUP1 DUP4 DUP2 MSTORE PUSH1 0x20 ADD SWAP1 DUP2 MSTORE PUSH1 0x20 ADD PUSH1 0x0 KECCAK256 PUSH1 0x2 ADD DUP1 SLOAD DUP1 PUSH1 0x20 MUL PUSH1 0x20 ADD PUSH1 0x40 MLOAD SWAP1 DUP2 ADD PUSH1 0x40 MSTORE DUP1 SWAP3 SWAP2 SWAP1 DUP2 DUP2 MSTORE PUSH1 0x20 ADD DUP3 DUP1 SLOAD DUP1 ISZERO PUSH2 0x15EF JUMPI PUSH1 0x20 MUL DUP3 ADD SWAP2 SWAP1 PUSH1 0x0 MSTORE PUSH1 0x20 PUSH1 0x0 KECCAK256 SWAP1 JUMPDEST DUP2 PUSH1 0x0 SWAP1 SLOAD SWAP1 PUSH2 0x100 EXP SWAP1 DIV PUSH20 0xFFFFFFFFFFFFFFFFFFFFFFFFFFFFFFFFFFFFFFFF AND PUSH20 0xFFFFFFFFFFFFFFFFFFFFFFFFFFFFFFFFFFFFFFFF AND DUP2 MSTORE PUSH1 0x20 ADD SWAP1 PUSH1 0x1 ADD SWAP1 DUP1 DUP4 GT PUSH2 0x15A5 JUMPI JUMPDEST POP POP POP POP POP SWAP1 POP SWAP2 SWAP1 POP JUMP JUMPDEST PUSH1 0x0 PUSH2 0x1629 PUSH32 0x9BB01EE17EE7DA5E986B5D16D403520AD707C7624910531109D0898B56130869 PUSH1 0x0 SHL PUSH2 0x286A JUMP JUMPDEST PUSH2 0x1655 PUSH32 0x94F2AD3786BBB52649F9B4C6DD368F5EBC23B4FDA5669442EE4B7FED00C72815 PUSH1 0x0 SHL PUSH2 0x286A JUMP JUMPDEST PUSH2 0x1681 PUSH32 0x3F48CB40FCC10A8DD1E390DA8596E5D3217F7BB3AF8328DBAD55B6CA6710AE90 PUSH1 0x0 SHL PUSH2 0x286A JUMP JUMPDEST PUSH1 0x0 DUP1 DUP4 DUP2 MSTORE PUSH1 0x20 ADD SWAP1 DUP2 MSTORE PUSH1 0x20 ADD PUSH1 0x0 KECCAK256 PUSH1 0x3 ADD PUSH1 0x0 SWAP1 SLOAD SWAP1 PUSH2 0x100 EXP SWAP1 DIV PUSH20 0xFFFFFFFFFFFFFFFFFFFFFFFFFFFFFFFFFFFFFFFF AND SWAP1 POP SWAP2 SWAP1 POP JUMP JUMPDEST PUSH1 0x0 PUSH2 0x16EC PUSH32 0xDF5C5F99307595D02DBB82F92E84D8FD0CE42620A3F9708457CDD9F44149FC87 PUSH1 0x0 SHL PUSH2 0x286A JUMP JUMPDEST PUSH2 0x1718 PUSH32 0x7BE92E717284A065D304A4ECBB1DD4EABB487E779C82975C73D74C91F393723B PUSH1 0x0 SHL PUSH2 0x286A JUMP JUMPDEST PUSH2 0x1744 PUSH32 0x5EE042667A8D2E01ABAF3B0356859BA109975E099CE681AA99BBE4A182A7C87B PUSH1 0x0 SHL PUSH2 0x286A JUMP JUMPDEST PUSH1 0x0 DUP1 DUP5 DUP2 MSTORE PUSH1 0x20 ADD SWAP1 DUP2 MSTORE PUSH1 0x20 ADD PUSH1 0x0 KECCAK256 PUSH1 0x1 ADD PUSH1 0x0 DUP4 PUSH20 0xFFFFFFFFFFFFFFFFFFFFFFFFFFFFFFFFFFFFFFFF AND PUSH20 0xFFFFFFFFFFFFFFFFFFFFFFFFFFFFFFFFFFFFFFFF AND DUP2 MSTORE PUSH1 0x20 ADD SWAP1 DUP2 MSTORE PUSH1 0x20 ADD PUSH1 0x0 KECCAK256 PUSH1 0x0 ADD SLOAD SWAP1 POP SWAP3 SWAP2 POP POP JUMP JUMPDEST PUSH1 0x0 PUSH1 0x20 MSTORE DUP1 PUSH1 0x0 MSTORE PUSH1 0x40 PUSH1 0x0 KECCAK256 PUSH1 0x0 SWAP2 POP SWAP1 POP DUP1 PUSH1 0x3 ADD PUSH1 0x0 SWAP1 SLOAD SWAP1 PUSH2 0x100 EXP SWAP1 DIV PUSH20 0xFFFFFFFFFFFFFFFFFFFFFFFFFFFFFFFFFFFFFFFF AND SWAP1 DUP1 PUSH1 0x4 ADD SLOAD SWAP1 DUP1 PUSH1 0x5 ADD SLOAD SWAP1 DUP1 PUSH1 0x6 ADD SLOAD SWAP1 DUP1 PUSH1 0x7 ADD PUSH1 0x0 SWAP1 SLOAD SWAP1 PUSH2 0x100 EXP SWAP1 DIV PUSH1 0xFF AND SWAP1 POP DUP6 JUMP JUMPDEST PUSH1 0x2 SLOAD DUP2 JUMP JUMPDEST PUSH2 0x1837 PUSH32 0x5754ADA1CF7FC830E55B31589D87DDC3A67A0FB0ED58731040CA6A0545CE079A PUSH1 0x0 SHL PUSH2 0x286A JUMP JUMPDEST PUSH2 0x1863 PUSH32 0x425D5EBC82264D2E21BFF253BD704112E9732CBD2E9B3BE38F6F41FEF0C9412A PUSH1 0x0 SHL PUSH2 0x286A JUMP JUMPDEST PUSH2 0x188F PUSH32 0xC0D1C5BDD9CC115441987C27E1639D3A20C60502DE43CA9B0AA82F4DEE5362E4 PUSH1 0x0 SHL PUSH2 0x286A JUMP JUMPDEST PUSH2 0x18BB PUSH32 0x6EB75FD416424FFFF6CBB0A989922A2A8194563FD277370F7B4D9D9D8AC07C6F PUSH1 0x0 SHL PUSH2 0x286A JUMP JUMPDEST PUSH1 0x0 DUP1 DUP3 DUP2 MSTORE PUSH1 0x20 ADD SWAP1 DUP2 MSTORE PUSH1 0x20 ADD PUSH1 0x0 KECCAK256 PUSH1 0x7 ADD PUSH1 0x0 SWAP1 SLOAD SWAP1 PUSH2 0x100 EXP SWAP1 DIV PUSH1 0xFF AND PUSH2 0x191D JUMPI PUSH1 0x40 MLOAD PUSH32 0x8C379A000000000000000000000000000000000000000000000000000000000 DUP2 MSTORE PUSH1 0x4 ADD PUSH2 0x1914 SWAP1 PUSH2 0x3011 JUMP JUMPDEST PUSH1 0x40 MLOAD DUP1 SWAP2 SUB SWAP1 REVERT JUMPDEST PUSH2 0x1949 PUSH32 0xFEDFB28CE4CB0D285D12B0C71B9D88070BFC98776A7F16A88BB3D711C442317 PUSH1 0x0 SHL PUSH2 0x286A JUMP JUMPDEST PUSH2 0x1975 PUSH32 0xA663B7BFABD1E50E94BC9A6365B3DFB360FBD57FA44D1D78427A3A61610BADFC PUSH1 0x0 SHL PUSH2 0x286A JUMP JUMPDEST PUSH2 0x19A1 PUSH32 0x60EB676291C55AA9960E50CB0CA41DDE483E428220C8E1C1B3EBAE3EEADF9EED PUSH1 0x0 SHL PUSH2 0x286A JUMP JUMPDEST PUSH2 0x19CD PUSH32 0xB1AC4059C3D05477BCFCB12345C57BAEF6B69DE8093E3D62986D1904C0728780 PUSH1 0x0 SHL PUSH2 0x286A JUMP JUMPDEST TIMESTAMP PUSH1 0x0 DUP1 DUP4 DUP2 MSTORE PUSH1 0x20 ADD SWAP1 DUP2 MSTORE PUSH1 0x20 ADD PUSH1 0x0 KECCAK256 PUSH1 0x6 ADD SLOAD GT ISZERO PUSH2 0x1A25 JUMPI PUSH1 0x40 MLOAD PUSH32 0x8C379A000000000000000000000000000000000000000000000000000000000 DUP2 MSTORE PUSH1 0x4 ADD PUSH2 0x1A1C SWAP1 PUSH2 0x2F31 JUMP JUMPDEST PUSH1 0x40 MLOAD DUP1 SWAP2 SUB SWAP1 REVERT JUMPDEST PUSH2 0x1A51 PUSH32 0x8CC43D6FE3170FFD8CFB8897F2B5E4E9616AF110CAC1AAF5AE663DB93FD75214 PUSH1 0x0 SHL PUSH2 0x286A JUMP JUMPDEST PUSH2 0x1A7D PUSH32 0x3711347D3490E072F6BD421A8F6B7C9FA56CBED3A171EB5553F4697081ED3A1F PUSH1 0x0 SHL PUSH2 0x286A JUMP JUMPDEST PUSH2 0x1AA9 PUSH32 0x44F26DD25D64F91CE172FDC0C5FC2211C571DABAA78C9EE974C9DCEBF4907CFB PUSH1 0x0 SHL PUSH2 0x286A JUMP JUMPDEST PUSH1 0x0 DUP1 PUSH1 0x0 DUP4 DUP2 MSTORE PUSH1 0x20 ADD SWAP1 DUP2 MSTORE PUSH1 0x20 ADD PUSH1 0x0 KECCAK256 PUSH1 0x7 ADD PUSH1 0x0 PUSH2 0x100 EXP DUP2 SLOAD DUP2 PUSH1 0xFF MUL NOT AND SWAP1 DUP4 ISZERO ISZERO MUL OR SWAP1 SSTORE POP PUSH2 0x1B03 PUSH32 0xD1857040418D0AD940B83913EB4C3CFB9A235D7133B519AE3193CC1F522141AB PUSH1 0x0 SHL PUSH2 0x286A JUMP JUMPDEST PUSH2 0x1B2F PUSH32 0x370ACBDD93D154A822535E5C464D9B68DB5CBA6638512607B3633B4AFC9D2777 PUSH1 0x0 SHL PUSH2 0x286A JUMP JUMPDEST PUSH1 0x0 DUP1 PUSH1 0x0 DUP4 DUP2 MSTORE PUSH1 0x20 ADD SWAP1 DUP2 MSTORE PUSH1 0x20 ADD PUSH1 0x0 KECCAK256 PUSH1 0x4 ADD SLOAD EQ ISZERO PUSH2 0x1BD6 JUMPI PUSH2 0x1B79 PUSH32 0xAA4B588216D34816839518DA271FDCEEA2F91908808AF93B2E274C5BC68565F3 PUSH1 0x0 SHL PUSH2 0x286A JUMP JUMPDEST PUSH2 0x1BA5 PUSH32 0x9108851CA75877A789006811275150088DBEE202007EFBF4363CD0F3C4C064D PUSH1 0x0 SHL PUSH2 0x286A JUMP JUMPDEST PUSH2 0x1BD1 PUSH32 0xF1B99C7A218EFC8A105E027087089B26437EF839A92BC4B67DA0E1A40113E973 PUSH1 0x0 SHL PUSH2 0x286A JUMP JUMPDEST PUSH2 0x1EC7 JUMP JUMPDEST PUSH2 0x1C02 PUSH32 0xA9F94E264FB010A166B6CFD2EBEC785456031BD0EE83C692D7EC012F8C1AF9CB PUSH1 0x0 SHL PUSH2 0x286A JUMP JUMPDEST PUSH2 0x1C2E PUSH32 0x1CFF356A02608062365788297F1C9B4811F0CD430A2E0B546A795A4AF6A7A8DD PUSH1 0x0 SHL PUSH2 0x286A JUMP JUMPDEST PUSH2 0x1C5A PUSH32 0x1FE7C50D504CB8EEFDB3D74F06A7781B952700EE2D7E2DC66823F40B6127C724 PUSH1 0x0 SHL PUSH2 0x286A JUMP JUMPDEST PUSH1 0x0 PUSH1 0x64 PUSH1 0x3 SLOAD PUSH1 0x64 PUSH2 0x1C6D SWAP2 SWAP1 PUSH2 0x3208 JUMP JUMPDEST PUSH1 0x2 SLOAD PUSH1 0x0 DUP1 DUP7 DUP2 MSTORE PUSH1 0x20 ADD SWAP1 DUP2 MSTORE PUSH1 0x20 ADD PUSH1 0x0 KECCAK256 PUSH1 0x4 ADD SLOAD PUSH2 0x1C90 SWAP2 SWAP1 PUSH2 0x31AE JUMP JUMPDEST PUSH2 0x1C9A SWAP2 SWAP1 PUSH2 0x31AE JUMP JUMPDEST PUSH2 0x1CA4 SWAP2 SWAP1 PUSH2 0x317D JUMP JUMPDEST SWAP1 POP PUSH2 0x1CD2 PUSH32 0x79978F829B93B51016F410CE3916614A4560AAD9DCB6050626729078333DF22E PUSH1 0x0 SHL PUSH2 0x286A JUMP JUMPDEST PUSH2 0x1CFE PUSH32 0x8ABBDD27A0894E0699E5F75CB1729D7FED496438BCA17E31F2DFF7FFBF96C179 PUSH1 0x0 SHL PUSH2 0x286A JUMP JUMPDEST PUSH1 0x0 DUP1 DUP4 DUP2 MSTORE PUSH1 0x20 ADD SWAP1 DUP2 MSTORE PUSH1 0x20 ADD PUSH1 0x0 KECCAK256 PUSH1 0x3 ADD PUSH1 0x0 SWAP1 SLOAD SWAP1 PUSH2 0x100 EXP SWAP1 DIV PUSH20 0xFFFFFFFFFFFFFFFFFFFFFFFFFFFFFFFFFFFFFFFF AND PUSH20 0xFFFFFFFFFFFFFFFFFFFFFFFFFFFFFFFFFFFFFFFF AND DUP3 PUSH32 0x1C2AE1F7E99DBBBFE25AAC964F3889EA68259D88B74709F53037A6FB930BB02A DUP4 PUSH1 0x40 MLOAD PUSH2 0x1D7A SWAP2 SWAP1 PUSH2 0x3071 JUMP JUMPDEST PUSH1 0x40 MLOAD DUP1 SWAP2 SUB SWAP1 LOG3 PUSH2 0x1DAE PUSH32 0x8DEB733EFE0C0D40F4468C80EF7B291A82362CE0998914930D55A95A37949133 PUSH1 0x0 SHL PUSH2 0x286A JUMP JUMPDEST PUSH2 0x1DDA PUSH32 0xA1B90BC6AAB1C3096897BEFAABE3F9086392005D26B8DFA2730CC3B977BA51BB PUSH1 0x0 SHL PUSH2 0x286A JUMP JUMPDEST PUSH2 0x1E19 PUSH1 0x0 DUP1 DUP5 DUP2 MSTORE PUSH1 0x20 ADD SWAP1 DUP2 MSTORE PUSH1 0x20 ADD PUSH1 0x0 KECCAK256 PUSH1 0x3 ADD PUSH1 0x0 SWAP1 SLOAD SWAP1 PUSH2 0x100 EXP SWAP1 DIV PUSH20 0xFFFFFFFFFFFFFFFFFFFFFFFFFFFFFFFFFFFFFFFF AND DUP3 PUSH2 0x286D JUMP JUMPDEST PUSH2 0x1E45 PUSH32 0x81CC162194AA77C2A464C6C216F1884AABFF8133E7C6BAA064BD767EE6814204 PUSH1 0x0 SHL PUSH2 0x286A JUMP JUMPDEST PUSH2 0x1E71 PUSH32 0x8105CCA5901932826B857436A16A63B4144CB34783DC383930FCA7D4F57AE486 PUSH1 0x0 SHL PUSH2 0x286A JUMP JUMPDEST PUSH1 0x64 PUSH1 0x3 SLOAD PUSH1 0x2 SLOAD PUSH1 0x0 DUP1 DUP7 DUP2 MSTORE PUSH1 0x20 ADD SWAP1 DUP2 MSTORE PUSH1 0x20 ADD PUSH1 0x0 KECCAK256 PUSH1 0x4 ADD SLOAD PUSH2 0x1E99 SWAP2 SWAP1 PUSH2 0x31AE JUMP JUMPDEST PUSH2 0x1EA3 SWAP2 SWAP1 PUSH2 0x31AE JUMP JUMPDEST PUSH2 0x1EAD SWAP2 SWAP1 PUSH2 0x317D JUMP JUMPDEST PUSH1 0x4 PUSH1 0x0 DUP3 DUP3 SLOAD PUSH2 0x1EBE SWAP2 SWAP1 PUSH2 0x3127 JUMP JUMPDEST SWAP3 POP POP DUP2 SWAP1 SSTORE POP POP JUMPDEST POP JUMP JUMPDEST PUSH2 0x1EF6 PUSH32 0x3C7AF0C7F8F4B479781275AACA4275A784B68EAC9DED6989E63650B17E069775 PUSH1 0x0 SHL PUSH2 0x286A JUMP JUMPDEST PUSH2 0x1F22 PUSH32 0x17DA741F75A73C8229437BA40A752A7C9B7A9844C27697998A2CF67876BD4E44 PUSH1 0x0 SHL PUSH2 0x286A JUMP JUMPDEST PUSH2 0x1F4E PUSH32 0x708B060130CB53E117BC0B61109E4CE774E56644F8C46D3BE7993B4B10405C72 PUSH1 0x0 SHL PUSH2 0x286A JUMP JUMPDEST PUSH2 0x1F7A PUSH32 0x237277423F050FF67D8F5E90B324FF391216C753B605CA9A929F14632C2C19E PUSH1 0x0 SHL PUSH2 0x286A JUMP JUMPDEST PUSH1 0x5 PUSH1 0x0 SWAP1 SLOAD SWAP1 PUSH2 0x100 EXP SWAP1 DIV PUSH20 0xFFFFFFFFFFFFFFFFFFFFFFFFFFFFFFFFFFFFFFFF AND PUSH20 0xFFFFFFFFFFFFFFFFFFFFFFFFFFFFFFFFFFFFFFFF AND CALLER PUSH20 0xFFFFFFFFFFFFFFFFFFFFFFFFFFFFFFFFFFFFFFFF AND EQ PUSH2 0x200A JUMPI PUSH1 0x40 MLOAD PUSH32 0x8C379A000000000000000000000000000000000000000000000000000000000 DUP2 MSTORE PUSH1 0x4 ADD PUSH2 0x2001 SWAP1 PUSH2 0x2ED1 JUMP JUMPDEST PUSH1 0x40 MLOAD DUP1 SWAP2 SUB SWAP1 REVERT JUMPDEST PUSH2 0x2035 PUSH31 0xA21A7544B7E25C140C4F1E07126A91827C34D641103B06ACF1AA55DEB3C9D0 PUSH1 0x0 SHL PUSH2 0x286A JUMP JUMPDEST PUSH2 0x2061 PUSH32 0x528237A7031718F8F40714F253A1B4B45E821B47D24A7CAD2EA3DF146B084F38 PUSH1 0x0 SHL PUSH2 0x286A JUMP JUMPDEST PUSH2 0x208D PUSH32 0xB0430D52CDA17F0F1A67E7192DA36AC223D335F6BC2DB18BB739F84F67A962B4 PUSH1 0x0 SHL PUSH2 0x286A JUMP JUMPDEST PUSH2 0x20B9 PUSH32 0xD980F844476A03082987693D8BF16290A201CB4F456C84C2AF43094FEC0F4057 PUSH1 0x0 SHL PUSH2 0x286A JUMP JUMPDEST PUSH2 0x20E5 PUSH32 0xB461C1BD0C1DABC80BA017DF99B8BBA834E868F54D7FCACA00D637104F1765D7 PUSH1 0x0 SHL PUSH2 0x286A JUMP JUMPDEST PUSH2 0x2111 PUSH32 0x1EC2008A2DDD73A32BD3B6ED560F9AC4D705804B3E804CCB737233F4F9692843 PUSH1 0x0 SHL PUSH2 0x286A JUMP JUMPDEST PUSH1 0x0 DUP1 DUP4 DUP2 MSTORE PUSH1 0x20 ADD SWAP1 DUP2 MSTORE PUSH1 0x20 ADD PUSH1 0x0 KECCAK256 PUSH1 0x7 ADD PUSH1 0x0 SWAP1 SLOAD SWAP1 PUSH2 0x100 EXP SWAP1 DIV PUSH1 0xFF AND ISZERO PUSH2 0x2174 JUMPI PUSH1 0x40 MLOAD PUSH32 0x8C379A000000000000000000000000000000000000000000000000000000000 DUP2 MSTORE PUSH1 0x4 ADD PUSH2 0x216B SWAP1 PUSH2 0x3051 JUMP JUMPDEST PUSH1 0x40 MLOAD DUP1 SWAP2 SUB SWAP1 REVERT JUMPDEST PUSH2 0x21A0 PUSH32 0xF8A61A1B11EB40157AE7EF9826FBB4BCD42EA9CDA497D96DAF2002F73827A6C8 PUSH1 0x0 SHL PUSH2 0x286A JUMP JUMPDEST PUSH2 0x21CC PUSH32 0x60A623E8A7B928312532A439CEC2350A772014AFFA46ECFB8816278745829869 PUSH1 0x0 SHL PUSH2 0x286A JUMP JUMPDEST PUSH2 0x21F8 PUSH32 0xC7348CF12B0A72DDB7C29A9A08543A7C043CDE4322A19B047D0199424FF3CB4 PUSH1 0x0 SHL PUSH2 0x286A JUMP JUMPDEST PUSH2 0x2224 PUSH32 0xE371E3DC66D493A096D7A6F543E190D65D9A073E3460D3EAA77EAC555856F92C PUSH1 0x0 SHL PUSH2 0x286A JUMP JUMPDEST PUSH1 0x1 DUP2 MLOAD GT PUSH2 0x2268 JUMPI PUSH1 0x40 MLOAD PUSH32 0x8C379A000000000000000000000000000000000000000000000000000000000 DUP2 MSTORE PUSH1 0x4 ADD PUSH2 0x225F SWAP1 PUSH2 0x2FF1 JUMP JUMPDEST PUSH1 0x40 MLOAD DUP1 SWAP2 SUB SWAP1 REVERT JUMPDEST PUSH2 0x2294 PUSH32 0xF112B23C041EA2EF7640FC18D1123CC7728547531A0A9AD622C41CD5F0C5E675 PUSH1 0x0 SHL PUSH2 0x286A JUMP JUMPDEST PUSH2 0x22C0 PUSH32 0x583D8F4B10FD1AFC47063CBB81B264C521156484B44B3C5EEBB267475EC96CD9 PUSH1 0x0 SHL PUSH2 0x286A JUMP JUMPDEST PUSH2 0x22EC PUSH32 0x4CCBE73C856B5192A125EA4CE67D2DD5E98F9203E22224C09C24834E0D6772E8 PUSH1 0x0 SHL PUSH2 0x286A JUMP JUMPDEST PUSH1 0x0 JUMPDEST DUP2 MLOAD DUP2 LT ISZERO PUSH2 0x26B2 JUMPI PUSH2 0x2324 PUSH32 0xB38D0D6523AF0310B1B178C3C4D7DB25E743AA79C68F48A88A8601ACCD59C9C PUSH1 0x0 SHL PUSH2 0x286A JUMP JUMPDEST PUSH2 0x2350 PUSH32 0x4D9294571D344616E6A81E67AA4E006B68168C4B794F4E4491BA1270FBBB1328 PUSH1 0x0 SHL PUSH2 0x286A JUMP JUMPDEST PUSH2 0x237C PUSH32 0x7EBEB2FF017668530BE8477DAF6EEB4725C09DA4EF5755D1B0D85F490723D5FC PUSH1 0x0 SHL PUSH2 0x286A JUMP JUMPDEST PUSH1 0x0 DUP1 DUP5 DUP2 MSTORE PUSH1 0x20 ADD SWAP1 DUP2 MSTORE PUSH1 0x20 ADD PUSH1 0x0 KECCAK256 PUSH1 0x1 ADD PUSH1 0x0 DUP4 DUP4 DUP2 MLOAD DUP2 LT PUSH2 0x23CC JUMPI PUSH32 0x4E487B7100000000000000000000000000000000000000000000000000000000 PUSH1 0x0 MSTORE PUSH1 0x32 PUSH1 0x4 MSTORE PUSH1 0x24 PUSH1 0x0 REVERT JUMPDEST PUSH1 0x20 MUL PUSH1 0x20 ADD ADD MLOAD PUSH20 0xFFFFFFFFFFFFFFFFFFFFFFFFFFFFFFFFFFFFFFFF AND PUSH20 0xFFFFFFFFFFFFFFFFFFFFFFFFFFFFFFFFFFFFFFFF AND DUP2 MSTORE PUSH1 0x20 ADD SWAP1 DUP2 MSTORE PUSH1 0x20 ADD PUSH1 0x0 KECCAK256 PUSH1 0x1 ADD PUSH1 0x0 SWAP1 SLOAD SWAP1 PUSH2 0x100 EXP SWAP1 DIV PUSH1 0xFF AND ISZERO PUSH2 0x245F JUMPI PUSH1 0x40 MLOAD PUSH32 0x8C379A000000000000000000000000000000000000000000000000000000000 DUP2 MSTORE PUSH1 0x4 ADD PUSH2 0x2456 SWAP1 PUSH2 0x3031 JUMP JUMPDEST PUSH1 0x40 MLOAD DUP1 SWAP2 SUB SWAP1 REVERT JUMPDEST PUSH2 0x248B PUSH32 0xE2C0BAFC99F10BCD1B4DC37C6A2524153210D78E534C8B952A04EB1EC8E08885 PUSH1 0x0 SHL PUSH2 0x286A JUMP JUMPDEST PUSH2 0x24B7 PUSH32 0xFC8D52829C52D6130896664C99F3D875E0FBA3F77CC4B829B968912192A9C95A PUSH1 0x0 SHL PUSH2 0x286A JUMP JUMPDEST PUSH2 0x24E3 PUSH32 0x23900498F7A25FB926680697AA46C6505458FA424066D84040D0943ECC4062B2 PUSH1 0x0 SHL PUSH2 0x286A JUMP JUMPDEST PUSH1 0x1 PUSH1 0x0 DUP1 DUP6 DUP2 MSTORE PUSH1 0x20 ADD SWAP1 DUP2 MSTORE PUSH1 0x20 ADD PUSH1 0x0 KECCAK256 PUSH1 0x1 ADD PUSH1 0x0 DUP5 DUP5 DUP2 MLOAD DUP2 LT PUSH2 0x2535 JUMPI PUSH32 0x4E487B7100000000000000000000000000000000000000000000000000000000 PUSH1 0x0 MSTORE PUSH1 0x32 PUSH1 0x4 MSTORE PUSH1 0x24 PUSH1 0x0 REVERT JUMPDEST PUSH1 0x20 MUL PUSH1 0x20 ADD ADD MLOAD PUSH20 0xFFFFFFFFFFFFFFFFFFFFFFFFFFFFFFFFFFFFFFFF AND PUSH20 0xFFFFFFFFFFFFFFFFFFFFFFFFFFFFFFFFFFFFFFFF AND DUP2 MSTORE PUSH1 0x20 ADD SWAP1 DUP2 MSTORE PUSH1 0x20 ADD PUSH1 0x0 KECCAK256 PUSH1 0x1 ADD PUSH1 0x0 PUSH2 0x100 EXP DUP2 SLOAD DUP2 PUSH1 0xFF MUL NOT AND SWAP1 DUP4 ISZERO ISZERO MUL OR SWAP1 SSTORE POP PUSH2 0x25BD PUSH32 0x2A5A584DEF8D50060335364416C6712EE31CBE2D9F7236AACEFCCC769E2F601F PUSH1 0x0 SHL PUSH2 0x286A JUMP JUMPDEST PUSH2 0x25E9 PUSH32 0x53B0738891F90BE2C27924E5BD57CDBD6CDFFE192363A5146F30474BF8BA3B4A PUSH1 0x0 SHL PUSH2 0x286A JUMP JUMPDEST PUSH1 0x0 DUP1 DUP5 DUP2 MSTORE PUSH1 0x20 ADD SWAP1 DUP2 MSTORE PUSH1 0x20 ADD PUSH1 0x0 KECCAK256 PUSH1 0x2 ADD DUP3 DUP3 DUP2 MLOAD DUP2 LT PUSH2 0x2637 JUMPI PUSH32 0x4E487B7100000000000000000000000000000000000000000000000000000000 PUSH1 0x0 MSTORE PUSH1 0x32 PUSH1 0x4 MSTORE PUSH1 0x24 PUSH1 0x0 REVERT JUMPDEST PUSH1 0x20 MUL PUSH1 0x20 ADD ADD MLOAD SWAP1 DUP1 PUSH1 0x1 DUP2 SLOAD ADD DUP1 DUP3 SSTORE DUP1 SWAP2 POP POP PUSH1 0x1 SWAP1 SUB SWAP1 PUSH1 0x0 MSTORE PUSH1 0x20 PUSH1 0x0 KECCAK256 ADD PUSH1 0x0 SWAP1 SWAP2 SWAP1 SWAP2 SWAP1 SWAP2 PUSH2 0x100 EXP DUP2 SLOAD DUP2 PUSH20 0xFFFFFFFFFFFFFFFFFFFFFFFFFFFFFFFFFFFFFFFF MUL NOT AND SWAP1 DUP4 PUSH20 0xFFFFFFFFFFFFFFFFFFFFFFFFFFFFFFFFFFFFFFFF AND MUL OR SWAP1 SSTORE POP DUP1 DUP1 PUSH2 0x26AA SWAP1 PUSH2 0x32BF JUMP JUMPDEST SWAP2 POP POP PUSH2 0x22EF JUMP JUMPDEST POP PUSH2 0x26DF PUSH32 0x59C0011E3FA5DFB051CAF6C023A3E6013DC6D1D7425628E7A586B9ABCBE9D8B5 PUSH1 0x0 SHL PUSH2 0x286A JUMP JUMPDEST PUSH2 0x270B PUSH32 0xE83E0681976A09128D13ED097959142FFE197A3EDDA1F8C3D34EC6236B159321 PUSH1 0x0 SHL PUSH2 0x286A JUMP JUMPDEST PUSH1 0x1 PUSH1 0x0 DUP1 DUP5 DUP2 MSTORE PUSH1 0x20 ADD SWAP1 DUP2 MSTORE PUSH1 0x20 ADD PUSH1 0x0 KECCAK256 PUSH1 0x7 ADD PUSH1 0x0 PUSH2 0x100 EXP DUP2 SLOAD DUP2 PUSH1 0xFF MUL NOT AND SWAP1 DUP4 ISZERO ISZERO MUL OR SWAP1 SSTORE POP PUSH2 0x2765 PUSH32 0xE129B29918066535DDFC122C3C20CF31AAB2FABD154A9B60DB34DD67C1F55C31 PUSH1 0x0 SHL PUSH2 0x286A JUMP JUMPDEST PUSH2 0x2791 PUSH32 0x5F99390F842E89E5645A3A6F796B8E6062C4285A519EC7F8DEE8539B846FF4BC PUSH1 0x0 SHL PUSH2 0x286A JUMP JUMPDEST PUSH1 0x1 SLOAD TIMESTAMP PUSH2 0x279F SWAP2 SWAP1 PUSH2 0x3127 JUMP JUMPDEST PUSH1 0x0 DUP1 DUP5 DUP2 MSTORE PUSH1 0x20 ADD SWAP1 DUP2 MSTORE PUSH1 0x20 ADD PUSH1 0x0 KECCAK256 PUSH1 0x6 ADD DUP2 SWAP1 SSTORE POP POP POP JUMP JUMPDEST PUSH1 0x0 PUSH2 0x27EA PUSH32 0xF5E240354BC5BB3496B9E96013282C032B5A8E33AD29BB194C1E74E9B6098298 PUSH1 0x0 SHL PUSH2 0x286A JUMP JUMPDEST PUSH2 0x2816 PUSH32 0x146D6BDC370FCF9153AD93E721A746AEBA5F82C681E24C3E0B131FEC4EEF8114 PUSH1 0x0 SHL PUSH2 0x286A JUMP JUMPDEST PUSH2 0x2842 PUSH32 0x57DA40C6AB599E94A9D9C6E259C097928D82238DE154508C53A2EDC7EA39761 PUSH1 0x0 SHL PUSH2 0x286A JUMP JUMPDEST TIMESTAMP PUSH1 0x0 DUP1 DUP5 DUP2 MSTORE PUSH1 0x20 ADD SWAP1 DUP2 MSTORE PUSH1 0x20 ADD PUSH1 0x0 KECCAK256 PUSH1 0x6 ADD SLOAD PUSH2 0x2863 SWAP2 SWAP1 PUSH2 0x3208 JUMP JUMPDEST SWAP1 POP SWAP2 SWAP1 POP JUMP JUMPDEST POP JUMP JUMPDEST PUSH2 0x2899 PUSH32 0xF525BB4AA696B2BC29FA320F607EF0152235418E1C11636252A9CDB1E006AF76 PUSH1 0x0 SHL PUSH2 0x286A JUMP JUMPDEST PUSH2 0x28C5 PUSH32 0x7D2EFC7236F229B45C9BA3121F70397AAB7DB34F9FE0DD3FE383D9DD74D3123B PUSH1 0x0 SHL PUSH2 0x286A JUMP JUMPDEST PUSH2 0x28F1 PUSH32 0x10DBE6BE8972623F97DA63C82E7020AE8021A9D053D8FC33EC7DC8ED50D2DD91 PUSH1 0x0 SHL PUSH2 0x286A JUMP JUMPDEST DUP2 PUSH20 0xFFFFFFFFFFFFFFFFFFFFFFFFFFFFFFFFFFFFFFFF AND PUSH2 0x8FC DUP3 SWAP1 DUP2 ISZERO MUL SWAP1 PUSH1 0x40 MLOAD PUSH1 0x0 PUSH1 0x40 MLOAD DUP1 DUP4 SUB DUP2 DUP6 DUP9 DUP9 CALL SWAP4 POP POP POP POP ISZERO DUP1 ISZERO PUSH2 0x2937 JUMPI RETURNDATASIZE PUSH1 0x0 DUP1 RETURNDATACOPY RETURNDATASIZE PUSH1 0x0 REVERT JUMPDEST POP PUSH2 0x2964 PUSH32 0x6249C1F072D0D4B3853C19D764262808BA112596926E35723E36244C9D304775 PUSH1 0x0 SHL PUSH2 0x286A JUMP JUMPDEST PUSH2 0x2990 PUSH32 0x67B3B8FDBCA3F49B3F08F896E86AF8086FFC291C9AAA1AAFAD88C03D76F77DCC PUSH1 0x0 SHL PUSH2 0x286A JUMP JUMPDEST DUP2 PUSH20 0xFFFFFFFFFFFFFFFFFFFFFFFFFFFFFFFFFFFFFFFF AND PUSH32 0x69CA02DD4EDD7BF0A4ABB9ED3B7AF3F14778DB5D61921C7DC7CD545266326DE2 DUP3 PUSH1 0x40 MLOAD PUSH2 0x29D6 SWAP2 SWAP1 PUSH2 0x3071 JUMP JUMPDEST PUSH1 0x40 MLOAD DUP1 SWAP2 SUB SWAP1 LOG2 POP POP JUMP JUMPDEST PUSH1 0x0 PUSH2 0x29F5 PUSH2 0x29F0 DUP5 PUSH2 0x30B1 JUMP JUMPDEST PUSH2 0x308C JUMP JUMPDEST SWAP1 POP DUP1 DUP4 DUP3 MSTORE PUSH1 0x20 DUP3 ADD SWAP1 POP DUP3 DUP6 PUSH1 0x20 DUP7 MUL DUP3 ADD GT ISZERO PUSH2 0x2A14 JUMPI PUSH1 0x0 DUP1 REVERT JUMPDEST PUSH1 0x0 JUMPDEST DUP6 DUP2 LT ISZERO PUSH2 0x2A44 JUMPI DUP2 PUSH2 0x2A2A DUP9 DUP3 PUSH2 0x2A4E JUMP JUMPDEST DUP5 MSTORE PUSH1 0x20 DUP5 ADD SWAP4 POP PUSH1 0x20 DUP4 ADD SWAP3 POP POP PUSH1 0x1 DUP2 ADD SWAP1 POP PUSH2 0x2A17 JUMP JUMPDEST POP POP POP SWAP4 SWAP3 POP POP POP JUMP JUMPDEST PUSH1 0x0 DUP2 CALLDATALOAD SWAP1 POP PUSH2 0x2A5D DUP2 PUSH2 0x3630 JUMP JUMPDEST SWAP3 SWAP2 POP POP JUMP JUMPDEST PUSH1 0x0 DUP3 PUSH1 0x1F DUP4 ADD SLT PUSH2 0x2A74 JUMPI PUSH1 0x0 DUP1 REVERT JUMPDEST DUP2 CALLDATALOAD PUSH2 0x2A84 DUP5 DUP3 PUSH1 0x20 DUP7 ADD PUSH2 0x29E2 JUMP JUMPDEST SWAP2 POP POP SWAP3 SWAP2 POP POP JUMP JUMPDEST PUSH1 0x0 DUP2 CALLDATALOAD SWAP1 POP PUSH2 0x2A9C DUP2 PUSH2 0x3647 JUMP JUMPDEST SWAP3 SWAP2 POP POP JUMP JUMPDEST PUSH1 0x0 PUSH1 0x20 DUP3 DUP5 SUB SLT ISZERO PUSH2 0x2AB4 JUMPI PUSH1 0x0 DUP1 REVERT JUMPDEST PUSH1 0x0 PUSH2 0x2AC2 DUP5 DUP3 DUP6 ADD PUSH2 0x2A8D JUMP JUMPDEST SWAP2 POP POP SWAP3 SWAP2 POP POP JUMP JUMPDEST PUSH1 0x0 DUP1 PUSH1 0x40 DUP4 DUP6 SUB SLT ISZERO PUSH2 0x2ADE JUMPI PUSH1 0x0 DUP1 REVERT JUMPDEST PUSH1 0x0 PUSH2 0x2AEC DUP6 DUP3 DUP7 ADD PUSH2 0x2A8D JUMP JUMPDEST SWAP3 POP POP PUSH1 0x20 PUSH2 0x2AFD DUP6 DUP3 DUP7 ADD PUSH2 0x2A4E JUMP JUMPDEST SWAP2 POP POP SWAP3 POP SWAP3 SWAP1 POP JUMP JUMPDEST PUSH1 0x0 DUP1 PUSH1 0x40 DUP4 DUP6 SUB SLT ISZERO PUSH2 0x2B1A JUMPI PUSH1 0x0 DUP1 REVERT JUMPDEST PUSH1 0x0 PUSH2 0x2B28 DUP6 DUP3 DUP7 ADD PUSH2 0x2A8D JUMP JUMPDEST SWAP3 POP POP PUSH1 0x20 DUP4 ADD CALLDATALOAD PUSH8 0xFFFFFFFFFFFFFFFF DUP2 GT ISZERO PUSH2 0x2B45 JUMPI PUSH1 0x0 DUP1 REVERT JUMPDEST PUSH2 0x2B51 DUP6 DUP3 DUP7 ADD PUSH2 0x2A63 JUMP JUMPDEST SWAP2 POP POP SWAP3 POP SWAP3 SWAP1 POP JUMP JUMPDEST PUSH1 0x0 PUSH2 0x2B67 DUP4 DUP4 PUSH2 0x2B73 JUMP JUMPDEST PUSH1 0x20 DUP4 ADD SWAP1 POP SWAP3 SWAP2 POP POP JUMP JUMPDEST PUSH2 0x2B7C DUP2 PUSH2 0x323C JUMP JUMPDEST DUP3 MSTORE POP POP JUMP JUMPDEST PUSH2 0x2B8B DUP2 PUSH2 0x323C JUMP JUMPDEST DUP3 MSTORE POP POP JUMP JUMPDEST PUSH1 0x0 PUSH2 0x2B9C DUP3 PUSH2 0x30ED JUMP JUMPDEST PUSH2 0x2BA6 DUP2 DUP6 PUSH2 0x3105 JUMP JUMPDEST SWAP4 POP PUSH2 0x2BB1 DUP4 PUSH2 0x30DD JUMP JUMPDEST DUP1 PUSH1 0x0 JUMPDEST DUP4 DUP2 LT ISZERO PUSH2 0x2BE2 JUMPI DUP2 MLOAD PUSH2 0x2BC9 DUP9 DUP3 PUSH2 0x2B5B JUMP JUMPDEST SWAP8 POP PUSH2 0x2BD4 DUP4 PUSH2 0x30F8 JUMP JUMPDEST SWAP3 POP POP PUSH1 0x1 DUP2 ADD SWAP1 POP PUSH2 0x2BB5 JUMP JUMPDEST POP DUP6 SWAP4 POP POP POP POP SWAP3 SWAP2 POP POP JUMP JUMPDEST PUSH2 0x2BF8 DUP2 PUSH2 0x324E JUMP JUMPDEST DUP3 MSTORE POP POP JUMP JUMPDEST PUSH2 0x2C07 DUP2 PUSH2 0x325A JUMP JUMPDEST DUP3 MSTORE POP POP JUMP JUMPDEST PUSH1 0x0 PUSH2 0x2C1A PUSH1 0xF DUP4 PUSH2 0x3116 JUMP JUMPDEST SWAP2 POP PUSH2 0x2C25 DUP3 PUSH2 0x33A6 JUMP JUMPDEST PUSH1 0x20 DUP3 ADD SWAP1 POP SWAP2 SWAP1 POP JUMP JUMPDEST PUSH1 0x0 PUSH2 0x2C3D PUSH1 0x15 DUP4 PUSH2 0x3116 JUMP JUMPDEST SWAP2 POP PUSH2 0x2C48 DUP3 PUSH2 0x33CF JUMP JUMPDEST PUSH1 0x20 DUP3 ADD SWAP1 POP SWAP2 SWAP1 POP JUMP JUMPDEST PUSH1 0x0 PUSH2 0x2C60 PUSH1 0x12 DUP4 PUSH2 0x3116 JUMP JUMPDEST SWAP2 POP PUSH2 0x2C6B DUP3 PUSH2 0x33F8 JUMP JUMPDEST PUSH1 0x20 DUP3 ADD SWAP1 POP SWAP2 SWAP1 POP JUMP JUMPDEST PUSH1 0x0 PUSH2 0x2C83 PUSH1 0x1B DUP4 PUSH2 0x3116 JUMP JUMPDEST SWAP2 POP PUSH2 0x2C8E DUP3 PUSH2 0x3421 JUMP JUMPDEST PUSH1 0x20 DUP3 ADD SWAP1 POP SWAP2 SWAP1 POP JUMP JUMPDEST PUSH1 0x0 PUSH2 0x2CA6 PUSH1 0x18 DUP4 PUSH2 0x3116 JUMP JUMPDEST SWAP2 POP PUSH2 0x2CB1 DUP3 PUSH2 0x344A JUMP JUMPDEST PUSH1 0x20 DUP3 ADD SWAP1 POP SWAP2 SWAP1 POP JUMP JUMPDEST PUSH1 0x0 PUSH2 0x2CC9 PUSH1 0x17 DUP4 PUSH2 0x3116 JUMP JUMPDEST SWAP2 POP PUSH2 0x2CD4 DUP3 PUSH2 0x3473 JUMP JUMPDEST PUSH1 0x20 DUP3 ADD SWAP1 POP SWAP2 SWAP1 POP JUMP JUMPDEST PUSH1 0x0 PUSH2 0x2CEC PUSH1 0x19 DUP4 PUSH2 0x3116 JUMP JUMPDEST SWAP2 POP PUSH2 0x2CF7 DUP3 PUSH2 0x349C JUMP JUMPDEST PUSH1 0x20 DUP3 ADD SWAP1 POP SWAP2 SWAP1 POP JUMP JUMPDEST PUSH1 0x0 PUSH2 0x2D0F PUSH1 0x1D DUP4 PUSH2 0x3116 JUMP JUMPDEST SWAP2 POP PUSH2 0x2D1A DUP3 PUSH2 0x34C5 JUMP JUMPDEST PUSH1 0x20 DUP3 ADD SWAP1 POP SWAP2 SWAP1 POP JUMP JUMPDEST PUSH1 0x0 PUSH2 0x2D32 PUSH1 0x17 DUP4 PUSH2 0x3116 JUMP JUMPDEST SWAP2 POP PUSH2 0x2D3D DUP3 PUSH2 0x34EE JUMP JUMPDEST PUSH1 0x20 DUP3 ADD SWAP1 POP SWAP2 SWAP1 POP JUMP JUMPDEST PUSH1 0x0 PUSH2 0x2D55 PUSH1 0x12 DUP4 PUSH2 0x3116 JUMP JUMPDEST SWAP2 POP PUSH2 0x2D60 DUP3 PUSH2 0x3517 JUMP JUMPDEST PUSH1 0x20 DUP3 ADD SWAP1 POP SWAP2 SWAP1 POP JUMP JUMPDEST PUSH1 0x0 PUSH2 0x2D78 PUSH1 0x22 DUP4 PUSH2 0x3116 JUMP JUMPDEST SWAP2 POP PUSH2 0x2D83 DUP3 PUSH2 0x3540 JUMP JUMPDEST PUSH1 0x40 DUP3 ADD SWAP1 POP SWAP2 SWAP1 POP JUMP JUMPDEST PUSH1 0x0 PUSH2 0x2D9B PUSH1 0x11 DUP4 PUSH2 0x3116 JUMP JUMPDEST SWAP2 POP PUSH2 0x2DA6 DUP3 PUSH2 0x358F JUMP JUMPDEST PUSH1 0x20 DUP3 ADD SWAP1 POP SWAP2 SWAP1 POP JUMP JUMPDEST PUSH1 0x0 PUSH2 0x2DBE PUSH1 0x2B DUP4 PUSH2 0x3116 JUMP JUMPDEST SWAP2 POP PUSH2 0x2DC9 DUP3 PUSH2 0x35B8 JUMP JUMPDEST PUSH1 0x40 DUP3 ADD SWAP1 POP SWAP2 SWAP1 POP JUMP JUMPDEST PUSH1 0x0 PUSH2 0x2DE1 PUSH1 0x14 DUP4 PUSH2 0x3116 JUMP JUMPDEST SWAP2 POP PUSH2 0x2DEC DUP3 PUSH2 0x3607 JUMP JUMPDEST PUSH1 0x20 DUP3 ADD SWAP1 POP SWAP2 SWAP1 POP JUMP JUMPDEST PUSH2 0x2E00 DUP2 PUSH2 0x3284 JUMP JUMPDEST DUP3 MSTORE POP POP JUMP JUMPDEST PUSH1 0x0 PUSH1 0x20 DUP3 ADD SWAP1 POP PUSH2 0x2E1B PUSH1 0x0 DUP4 ADD DUP5 PUSH2 0x2B82 JUMP JUMPDEST SWAP3 SWAP2 POP POP JUMP JUMPDEST PUSH1 0x0 PUSH1 0xA0 DUP3 ADD SWAP1 POP PUSH2 0x2E36 PUSH1 0x0 DUP4 ADD DUP9 PUSH2 0x2B82 JUMP JUMPDEST PUSH2 0x2E43 PUSH1 0x20 DUP4 ADD DUP8 PUSH2 0x2DF7 JUMP JUMPDEST PUSH2 0x2E50 PUSH1 0x40 DUP4 ADD DUP7 PUSH2 0x2DF7 JUMP JUMPDEST PUSH2 0x2E5D PUSH1 0x60 DUP4 ADD DUP6 PUSH2 0x2DF7 JUMP JUMPDEST PUSH2 0x2E6A PUSH1 0x80 DUP4 ADD DUP5 PUSH2 0x2BEF JUMP JUMPDEST SWAP7 SWAP6 POP POP POP POP POP POP JUMP JUMPDEST PUSH1 0x0 PUSH1 0x20 DUP3 ADD SWAP1 POP DUP2 DUP2 SUB PUSH1 0x0 DUP4 ADD MSTORE PUSH2 0x2E8E DUP2 DUP5 PUSH2 0x2B91 JUMP JUMPDEST SWAP1 POP SWAP3 SWAP2 POP POP JUMP JUMPDEST PUSH1 0x0 PUSH1 0x20 DUP3 ADD SWAP1 POP PUSH2 0x2EAB PUSH1 0x0 DUP4 ADD DUP5 PUSH2 0x2BFE JUMP JUMPDEST SWAP3 SWAP2 POP POP JUMP JUMPDEST PUSH1 0x0 PUSH1 0x20 DUP3 ADD SWAP1 POP DUP2 DUP2 SUB PUSH1 0x0 DUP4 ADD MSTORE PUSH2 0x2ECA DUP2 PUSH2 0x2C0D JUMP JUMPDEST SWAP1 POP SWAP2 SWAP1 POP JUMP JUMPDEST PUSH1 0x0 PUSH1 0x20 DUP3 ADD SWAP1 POP DUP2 DUP2 SUB PUSH1 0x0 DUP4 ADD MSTORE PUSH2 0x2EEA DUP2 PUSH2 0x2C30 JUMP JUMPDEST SWAP1 POP SWAP2 SWAP1 POP JUMP JUMPDEST PUSH1 0x0 PUSH1 0x20 DUP3 ADD SWAP1 POP DUP2 DUP2 SUB PUSH1 0x0 DUP4 ADD MSTORE PUSH2 0x2F0A DUP2 PUSH2 0x2C53 JUMP JUMPDEST SWAP1 POP SWAP2 SWAP1 POP JUMP JUMPDEST PUSH1 0x0 PUSH1 0x20 DUP3 ADD SWAP1 POP DUP2 DUP2 SUB PUSH1 0x0 DUP4 ADD MSTORE PUSH2 0x2F2A DUP2 PUSH2 0x2C76 JUMP JUMPDEST SWAP1 POP SWAP2 SWAP1 POP JUMP JUMPDEST PUSH1 0x0 PUSH1 0x20 DUP3 ADD SWAP1 POP DUP2 DUP2 SUB PUSH1 0x0 DUP4 ADD MSTORE PUSH2 0x2F4A DUP2 PUSH2 0x2C99 JUMP JUMPDEST SWAP1 POP SWAP2 SWAP1 POP JUMP JUMPDEST PUSH1 0x0 PUSH1 0x20 DUP3 ADD SWAP1 POP DUP2 DUP2 SUB PUSH1 0x0 DUP4 ADD MSTORE PUSH2 0x2F6A DUP2 PUSH2 0x2CBC JUMP JUMPDEST SWAP1 POP SWAP2 SWAP1 POP JUMP JUMPDEST PUSH1 0x0 PUSH1 0x20 DUP3 ADD SWAP1 POP DUP2 DUP2 SUB PUSH1 0x0 DUP4 ADD MSTORE PUSH2 0x2F8A DUP2 PUSH2 0x2CDF JUMP JUMPDEST SWAP1 POP SWAP2 SWAP1 POP JUMP JUMPDEST PUSH1 0x0 PUSH1 0x20 DUP3 ADD SWAP1 POP DUP2 DUP2 SUB PUSH1 0x0 DUP4 ADD MSTORE PUSH2 0x2FAA DUP2 PUSH2 0x2D02 JUMP JUMPDEST SWAP1 POP SWAP2 SWAP1 POP JUMP JUMPDEST PUSH1 0x0 PUSH1 0x20 DUP3 ADD SWAP1 POP DUP2 DUP2 SUB PUSH1 0x0 DUP4 ADD MSTORE PUSH2 0x2FCA DUP2 PUSH2 0x2D25 JUMP JUMPDEST SWAP1 POP SWAP2 SWAP1 POP JUMP JUMPDEST PUSH1 0x0 PUSH1 0x20 DUP3 ADD SWAP1 POP DUP2 DUP2 SUB PUSH1 0x0 DUP4 ADD MSTORE PUSH2 0x2FEA DUP2 PUSH2 0x2D48 JUMP JUMPDEST SWAP1 POP SWAP2 SWAP1 POP JUMP JUMPDEST PUSH1 0x0 PUSH1 0x20 DUP3 ADD SWAP1 POP DUP2 DUP2 SUB PUSH1 0x0 DUP4 ADD MSTORE PUSH2 0x300A DUP2 PUSH2 0x2D6B JUMP JUMPDEST SWAP1 POP SWAP2 SWAP1 POP JUMP JUMPDEST PUSH1 0x0 PUSH1 0x20 DUP3 ADD SWAP1 POP DUP2 DUP2 SUB PUSH1 0x0 DUP4 ADD MSTORE PUSH2 0x302A DUP2 PUSH2 0x2D8E JUMP JUMPDEST SWAP1 POP SWAP2 SWAP1 POP JUMP JUMPDEST PUSH1 0x0 PUSH1 0x20 DUP3 ADD SWAP1 POP DUP2 DUP2 SUB PUSH1 0x0 DUP4 ADD MSTORE PUSH2 0x304A DUP2 PUSH2 0x2DB1 JUMP JUMPDEST SWAP1 POP SWAP2 SWAP1 POP JUMP JUMPDEST PUSH1 0x0 PUSH1 0x20 DUP3 ADD SWAP1 POP DUP2 DUP2 SUB PUSH1 0x0 DUP4 ADD MSTORE PUSH2 0x306A DUP2 PUSH2 0x2DD4 JUMP JUMPDEST SWAP1 POP SWAP2 SWAP1 POP JUMP JUMPDEST PUSH1 0x0 PUSH1 0x20 DUP3 ADD SWAP1 POP PUSH2 0x3086 PUSH1 0x0 DUP4 ADD DUP5 PUSH2 0x2DF7 JUMP JUMPDEST SWAP3 SWAP2 POP POP JUMP JUMPDEST PUSH1 0x0 PUSH2 0x3096 PUSH2 0x30A7 JUMP JUMPDEST SWAP1 POP PUSH2 0x30A2 DUP3 DUP3 PUSH2 0x328E JUMP JUMPDEST SWAP2 SWAP1 POP JUMP JUMPDEST PUSH1 0x0 PUSH1 0x40 MLOAD SWAP1 POP SWAP1 JUMP JUMPDEST PUSH1 0x0 PUSH8 0xFFFFFFFFFFFFFFFF DUP3 GT ISZERO PUSH2 0x30CC JUMPI PUSH2 0x30CB PUSH2 0x3366 JUMP JUMPDEST JUMPDEST PUSH1 0x20 DUP3 MUL SWAP1 POP PUSH1 0x20 DUP2 ADD SWAP1 POP SWAP2 SWAP1 POP JUMP JUMPDEST PUSH1 0x0 DUP2 SWAP1 POP PUSH1 0x20 DUP3 ADD SWAP1 POP SWAP2 SWAP1 POP JUMP JUMPDEST PUSH1 0x0 DUP2 MLOAD SWAP1 POP SWAP2 SWAP1 POP JUMP JUMPDEST PUSH1 0x0 PUSH1 0x20 DUP3 ADD SWAP1 POP SWAP2 SWAP1 POP JUMP JUMPDEST PUSH1 0x0 DUP3 DUP3 MSTORE PUSH1 0x20 DUP3 ADD SWAP1 POP SWAP3 SWAP2 POP POP JUMP JUMPDEST PUSH1 0x0 DUP3 DUP3 MSTORE PUSH1 0x20 DUP3 ADD SWAP1 POP SWAP3 SWAP2 POP POP JUMP JUMPDEST PUSH1 0x0 PUSH2 0x3132 DUP3 PUSH2 0x3284 JUMP JUMPDEST SWAP2 POP PUSH2 0x313D DUP4 PUSH2 0x3284 JUMP JUMPDEST SWAP3 POP DUP3 PUSH32 0xFFFFFFFFFFFFFFFFFFFFFFFFFFFFFFFFFFFFFFFFFFFFFFFFFFFFFFFFFFFFFFFF SUB DUP3 GT ISZERO PUSH2 0x3172 JUMPI PUSH2 0x3171 PUSH2 0x3308 JUMP JUMPDEST JUMPDEST DUP3 DUP3 ADD SWAP1 POP SWAP3 SWAP2 POP POP JUMP JUMPDEST PUSH1 0x0 PUSH2 0x3188 DUP3 PUSH2 0x3284 JUMP JUMPDEST SWAP2 POP PUSH2 0x3193 DUP4 PUSH2 0x3284 JUMP JUMPDEST SWAP3 POP DUP3 PUSH2 0x31A3 JUMPI PUSH2 0x31A2 PUSH2 0x3337 JUMP JUMPDEST JUMPDEST DUP3 DUP3 DIV SWAP1 POP SWAP3 SWAP2 POP POP JUMP JUMPDEST PUSH1 0x0 PUSH2 0x31B9 DUP3 PUSH2 0x3284 JUMP JUMPDEST SWAP2 POP PUSH2 0x31C4 DUP4 PUSH2 0x3284 JUMP JUMPDEST SWAP3 POP DUP2 PUSH32 0xFFFFFFFFFFFFFFFFFFFFFFFFFFFFFFFFFFFFFFFFFFFFFFFFFFFFFFFFFFFFFFFF DIV DUP4 GT DUP3 ISZERO ISZERO AND ISZERO PUSH2 0x31FD JUMPI PUSH2 0x31FC PUSH2 0x3308 JUMP JUMPDEST JUMPDEST DUP3 DUP3 MUL SWAP1 POP SWAP3 SWAP2 POP POP JUMP JUMPDEST PUSH1 0x0 PUSH2 0x3213 DUP3 PUSH2 0x3284 JUMP JUMPDEST SWAP2 POP PUSH2 0x321E DUP4 PUSH2 0x3284 JUMP JUMPDEST SWAP3 POP DUP3 DUP3 LT ISZERO PUSH2 0x3231 JUMPI PUSH2 0x3230 PUSH2 0x3308 JUMP JUMPDEST JUMPDEST DUP3 DUP3 SUB SWAP1 POP SWAP3 SWAP2 POP POP JUMP JUMPDEST PUSH1 0x0 PUSH2 0x3247 DUP3 PUSH2 0x3264 JUMP JUMPDEST SWAP1 POP SWAP2 SWAP1 POP JUMP JUMPDEST PUSH1 0x0 DUP2 ISZERO ISZERO SWAP1 POP SWAP2 SWAP1 POP JUMP JUMPDEST PUSH1 0x0 DUP2 SWAP1 POP SWAP2 SWAP1 POP JUMP JUMPDEST PUSH1 0x0 PUSH20 0xFFFFFFFFFFFFFFFFFFFFFFFFFFFFFFFFFFFFFFFF DUP3 AND SWAP1 POP SWAP2 SWAP1 POP JUMP JUMPDEST PUSH1 0x0 DUP2 SWAP1 POP SWAP2 SWAP1 POP JUMP JUMPDEST PUSH2 0x3297 DUP3 PUSH2 0x3395 JUMP JUMPDEST DUP2 ADD DUP2 DUP2 LT PUSH8 0xFFFFFFFFFFFFFFFF DUP3 GT OR ISZERO PUSH2 0x32B6 JUMPI PUSH2 0x32B5 PUSH2 0x3366 JUMP JUMPDEST JUMPDEST DUP1 PUSH1 0x40 MSTORE POP POP POP JUMP JUMPDEST PUSH1 0x0 PUSH2 0x32CA DUP3 PUSH2 0x3284 JUMP JUMPDEST SWAP2 POP PUSH32 0xFFFFFFFFFFFFFFFFFFFFFFFFFFFFFFFFFFFFFFFFFFFFFFFFFFFFFFFFFFFFFFFF DUP3 EQ ISZERO PUSH2 0x32FD JUMPI PUSH2 0x32FC PUSH2 0x3308 JUMP JUMPDEST JUMPDEST PUSH1 0x1 DUP3 ADD SWAP1 POP SWAP2 SWAP1 POP JUMP JUMPDEST PUSH32 0x4E487B7100000000000000000000000000000000000000000000000000000000 PUSH1 0x0 MSTORE PUSH1 0x11 PUSH1 0x4 MSTORE PUSH1 0x24 PUSH1 0x0 REVERT JUMPDEST PUSH32 0x4E487B7100000000000000000000000000000000000000000000000000000000 PUSH1 0x0 MSTORE PUSH1 0x12 PUSH1 0x4 MSTORE PUSH1 0x24 PUSH1 0x0 REVERT JUMPDEST PUSH32 0x4E487B7100000000000000000000000000000000000000000000000000000000 PUSH1 0x0 MSTORE PUSH1 0x41 PUSH1 0x4 MSTORE PUSH1 0x24 PUSH1 0x0 REVERT JUMPDEST PUSH1 0x0 PUSH1 0x1F NOT PUSH1 0x1F DUP4 ADD AND SWAP1 POP SWAP2 SWAP1 POP JUMP JUMPDEST PUSH32 0x4E6F207375636820766F74696E67210000000000000000000000000000000000 PUSH1 0x0 DUP3 ADD MSTORE POP JUMP JUMPDEST PUSH32 0x596F7520617265206E6F7420616E206F776E6572210000000000000000000000 PUSH1 0x0 DUP3 ADD MSTORE POP JUMP JUMPDEST PUSH32 0x5468697320766F7465206973206F766572210000000000000000000000000000 PUSH1 0x0 DUP3 ADD MSTORE POP JUMP JUMPDEST PUSH32 0x596F752063616E7420766F746520666F7220796F757273656C66210000000000 PUSH1 0x0 DUP3 ADD MSTORE POP JUMP JUMPDEST PUSH32 0x43616E742066696E69736820766F6974696E6720796574210000000000000000 PUSH1 0x0 DUP3 ADD MSTORE POP JUMP JUMPDEST PUSH32 0x596F75206861766520616C726561647920766F74656421000000000000000000 PUSH1 0x0 DUP3 ADD MSTORE POP JUMP JUMPDEST PUSH32 0x43616E74207769746864726177206E756C6C2076616C75652100000000000000 PUSH1 0x0 DUP3 ADD MSTORE POP JUMP JUMPDEST PUSH32 0x56616C7565206973206F7574206F6620667265652062616C616E636521000000 PUSH1 0x0 DUP3 ADD MSTORE POP JUMP JUMPDEST PUSH32 0x496E636F727265637420766F74696E6720707269736521000000000000000000 PUSH1 0x0 DUP3 ADD MSTORE POP JUMP JUMPDEST PUSH32 0x4E6F20737563682063616E646964617465210000000000000000000000000000 PUSH1 0x0 DUP3 ADD MSTORE POP JUMP JUMPDEST PUSH32 0x4D7573742068617665206174206C656173742074776F2063616E646964617465 PUSH1 0x0 DUP3 ADD MSTORE PUSH32 0x7321000000000000000000000000000000000000000000000000000000000000 PUSH1 0x20 DUP3 ADD MSTORE POP JUMP JUMPDEST PUSH32 0x566F74696E67206E6F7420666F756E6421000000000000000000000000000000 PUSH1 0x0 DUP3 ADD MSTORE POP JUMP JUMPDEST PUSH32 0x446F6E7420757365206475706C696361746573207768656E20616464696E6720 PUSH1 0x0 DUP3 ADD MSTORE PUSH32 0x63616E6469646174657321000000000000000000000000000000000000000000 PUSH1 0x20 DUP3 ADD MSTORE POP JUMP JUMPDEST PUSH32 0x5468697320696E6465782069732074616B656E21000000000000000000000000 PUSH1 0x0 DUP3 ADD MSTORE POP JUMP JUMPDEST PUSH2 0x3639 DUP2 PUSH2 0x323C JUMP JUMPDEST DUP2 EQ PUSH2 0x3644 JUMPI PUSH1 0x0 DUP1 REVERT JUMPDEST POP JUMP JUMPDEST PUSH2 0x3650 DUP2 PUSH2 0x3284 JUMP JUMPDEST DUP2 EQ PUSH2 0x365B JUMPI PUSH1 0x0 DUP1 REVERT JUMPDEST POP JUMP INVALID LOG2 PUSH5 0x6970667358 0x22 SLT KECCAK256 PUSH27 0xFB7B65B9153BC98350D1DAEE541C0F73643BF162031B16C541D1C0 0x5E GT CODESIZE DELEGATECALL PUSH5 0x736F6C6343 STOP ADDMOD DIV STOP CALLER "
        },
        "methodIdentifiers": {
          "addVoting(uint256,address[])": "d6e20a65",
          "comission()": "3a4b4532",
          "finishVoting(uint256)": "abe7c08e",
          "freeBalance()": "25185d3e",
          "getBalance()": "12065fe0",
          "getCandidates(uint256)": "3e39a7a5",
          "getTimeLeft(uint256)": "e8c58763",
          "getVotes(uint256,address)": "68197360",
          "getWinner(uint256)": "4129b2c9",
          "vote(uint256,address)": "02d947ef",
          "votePrice()": "860c851a",
          "votingDuration()": "132002fc",
          "vp(uint256)": "7f4807a1",
          "withdraw(uint256)": "2e1a7d4d"
        }
      }
    }
  }
}