{
  "_format": "hh-sol-artifact-1",
  "contractName": "CryptonVoting",
  "sourceName": "contracts/Voting.sol",
  "abi": [
    {
      "inputs": [
        {
          "internalType": "uint256",
          "name": "_votingDuration",
          "type": "uint256"
        }
      ],
      "stateMutability": "nonpayable",
      "type": "constructor"
    },
    {
      "anonymous": false,
      "inputs": [
        {
          "indexed": true,
          "internalType": "address",
          "name": "_to",
          "type": "address"
        },
        {
          "indexed": false,
          "internalType": "uint256",
          "name": "_value",
          "type": "uint256"
        }
      ],
      "name": "Transfer",
      "type": "event"
    },
    {
      "anonymous": false,
      "inputs": [
        {
          "indexed": true,
          "internalType": "uint256",
          "name": "_index",
          "type": "uint256"
        },
        {
          "indexed": true,
          "internalType": "address",
          "name": "_address",
          "type": "address"
        },
        {
          "indexed": false,
          "internalType": "uint256",
          "name": "_prize",
          "type": "uint256"
        }
      ],
      "name": "Winner",
      "type": "event"
    },
    {
      "inputs": [
        {
          "internalType": "uint256",
          "name": "_index",
          "type": "uint256"
        },
        {
          "internalType": "address[]",
          "name": "_candidates",
          "type": "address[]"
        }
      ],
      "name": "addVoting",
      "outputs": [],
      "stateMutability": "nonpayable",
      "type": "function"
    },
    {
      "inputs": [],
      "name": "comission",
      "outputs": [
        {
          "internalType": "uint256",
          "name": "",
          "type": "uint256"
        }
      ],
      "stateMutability": "view",
      "type": "function"
    },
    {
      "inputs": [
        {
          "internalType": "uint256",
          "name": "_index",
          "type": "uint256"
        }
      ],
      "name": "finishVoting",
      "outputs": [],
      "stateMutability": "nonpayable",
      "type": "function"
    },
    {
      "inputs": [],
      "name": "freeBalance",
      "outputs": [
        {
          "internalType": "uint256",
          "name": "",
          "type": "uint256"
        }
      ],
      "stateMutability": "view",
      "type": "function"
    },
    {
      "inputs": [],
      "name": "getBalance",
      "outputs": [
        {
          "internalType": "uint256",
          "name": "",
          "type": "uint256"
        }
      ],
      "stateMutability": "view",
      "type": "function"
    },
    {
      "inputs": [
        {
          "internalType": "uint256",
          "name": "_index",
          "type": "uint256"
        }
      ],
      "name": "getCandidates",
      "outputs": [
        {
          "internalType": "address[]",
          "name": "",
          "type": "address[]"
        }
      ],
      "stateMutability": "view",
      "type": "function"
    },
    {
      "inputs": [
        {
          "internalType": "uint256",
          "name": "_index",
          "type": "uint256"
        }
      ],
      "name": "getTimeLeft",
      "outputs": [
        {
          "internalType": "int256",
          "name": "",
          "type": "int256"
        }
      ],
      "stateMutability": "view",
      "type": "function"
    },
    {
      "inputs": [
        {
          "internalType": "uint256",
          "name": "_index",
          "type": "uint256"
        },
        {
          "internalType": "address",
          "name": "_candidate",
          "type": "address"
        }
      ],
      "name": "getVotes",
      "outputs": [
        {
          "internalType": "uint256",
          "name": "",
          "type": "uint256"
        }
      ],
      "stateMutability": "view",
      "type": "function"
    },
    {
      "inputs": [
        {
          "internalType": "uint256",
          "name": "_index",
          "type": "uint256"
        }
      ],
      "name": "getWinner",
      "outputs": [
        {
          "internalType": "address",
          "name": "",
          "type": "address"
        }
      ],
      "stateMutability": "view",
      "type": "function"
    },
    {
      "inputs": [
        {
          "internalType": "uint256",
          "name": "_index",
          "type": "uint256"
        },
        {
          "internalType": "address",
          "name": "_candidate",
          "type": "address"
        }
      ],
      "name": "vote",
      "outputs": [],
      "stateMutability": "payable",
      "type": "function"
    },
    {
      "inputs": [],
      "name": "votePrice",
      "outputs": [
        {
          "internalType": "uint256",
          "name": "",
          "type": "uint256"
        }
      ],
      "stateMutability": "view",
      "type": "function"
    },
    {
      "inputs": [],
      "name": "votingDuration",
      "outputs": [
        {
          "internalType": "uint256",
          "name": "",
          "type": "uint256"
        }
      ],
      "stateMutability": "view",
      "type": "function"
    },
    {
      "inputs": [
        {
          "internalType": "uint256",
          "name": "",
          "type": "uint256"
        }
      ],
      "name": "vp",
      "outputs": [
        {
          "internalType": "address",
          "name": "winner",
          "type": "address"
        },
        {
          "internalType": "uint256",
          "name": "allVotes",
          "type": "uint256"
        },
        {
          "internalType": "uint256",
          "name": "maxVotes",
          "type": "uint256"
        },
        {
          "internalType": "uint256",
          "name": "finishTime",
          "type": "uint256"
        },
        {
          "internalType": "bool",
          "name": "inProcess",
          "type": "bool"
        }
      ],
      "stateMutability": "view",
      "type": "function"
    },
    {
      "inputs": [
        {
          "internalType": "uint256",
          "name": "_value",
          "type": "uint256"
        }
      ],
      "name": "withdraw",
      "outputs": [],
      "stateMutability": "nonpayable",
      "type": "function"
    }
  ],
  "bytecode": "0x6080604052662386f26fc10000600255600a6003553480156200002157600080fd5b50604051620038a8380380620038a88339818101604052810190620000479190620001b4565b6200007b7f8f7ff236f3833984bddf0244f083cfffb7baa4fa2a3d976e5577980206425d8560001b6200019a60201b60201c565b620000af7fab1f658b733ab8400249dda1ac1992518d2d0f9b1e156a7f93bd58af3302f61060001b6200019a60201b60201c565b620000e37f46a4aada76813741a1ca1ea8fffcc72dfe47f58ec7f9a90f3a17eb0bcd86bfe860001b6200019a60201b60201c565b33600560006101000a81548173ffffffffffffffffffffffffffffffffffffffff021916908373ffffffffffffffffffffffffffffffffffffffff160217905550620001587f6936ecda9d8916b72b7b9f40d80017295427df88baacea4b6473343c9c89650b60001b6200019a60201b60201c565b6200018c7f4861cfa06bda1343033c3fa7a35685ff6723278e4564fe55d7bb5a2c89e0916560001b6200019a60201b60201c565b806001819055505062000204565b50565b600081519050620001ae81620001ea565b92915050565b600060208284031215620001c757600080fd5b6000620001d7848285016200019d565b91505092915050565b6000819050919050565b620001f581620001e0565b81146200020157600080fd5b50565b61369480620002146000396000f3fe6080604052600436106100dd5760003560e01c80634129b2c91161007f578063860c851a11610059578063860c851a146102cb578063abe7c08e146102f6578063d6e20a651461031f578063e8c5876314610348576100dd565b80634129b2c914610210578063681973601461024d5780637f4807a11461028a576100dd565b806325185d3e116100bb57806325185d3e146101545780632e1a7d4d1461017f5780633a4b4532146101a85780633e39a7a5146101d3576100dd565b806302d947ef146100e257806312065fe0146100fe578063132002fc14610129575b600080fd5b6100fc60048036038101906100f79190612acb565b610385565b005b34801561010a57600080fd5b50610113610f92565b6040516101209190613071565b60405180910390f35b34801561013557600080fd5b5061013e61101e565b60405161014b9190613071565b60405180910390f35b34801561016057600080fd5b50610169611024565b6040516101769190613071565b60405180910390f35b34801561018b57600080fd5b506101a660048036038101906101a19190612aa2565b61102a565b005b3480156101b457600080fd5b506101bd6114ce565b6040516101ca9190613071565b60405180910390f35b3480156101df57600080fd5b506101fa60048036038101906101f59190612aa2565b6114d4565b6040516102079190612e74565b60405180910390f35b34801561021c57600080fd5b5061023760048036038101906102329190612aa2565b6115fb565b6040516102449190612e06565b60405180910390f35b34801561025957600080fd5b50610274600480360381019061026f9190612acb565b6116be565b6040516102819190613071565b60405180910390f35b34801561029657600080fd5b506102b160048036038101906102ac9190612aa2565b6117a2565b6040516102c2959493929190612e21565b60405180910390f35b3480156102d757600080fd5b506102e0611805565b6040516102ed9190613071565b60405180910390f35b34801561030257600080fd5b5061031d60048036038101906103189190612aa2565b61180b565b005b34801561032b57600080fd5b5061034660048036038101906103419190612b07565b611eca565b005b34801561035457600080fd5b5061036f600480360381019061036a9190612aa2565b6127bc565b60405161037c9190612e96565b60405180910390f35b81816103b37fdfc592934724453da185fb8e8874a4cdcebd126166b3b0b9b7ee134f9a8c236660001b61286a565b6103df7f843db57c97b23e5b67e6a9bd7fc2df039ddb4ebc731af57ab9f1aba828d4bd8f60001b61286a565b61040b7f57e362c88f6f3d5d8fa04de4ff0bbb8e48f39c87138e977fea858f6a5dabeb3160001b61286a565b6104377fccf5412143aadb95a9969fe2245d676305a6127c93b292ed2ee8a98e756ca16160001b61286a565b60008083815260200190815260200160002060070160009054906101000a900460ff16610499576040517f08c379a000000000000000000000000000000000000000000000000000000000815260040161049090612eb1565b60405180910390fd5b6104c57f4f188af283a3812465da23f6757b93498c4c5ade911fca1a40fcf9f3c319fca260001b61286a565b6104f17f474a6aaa5f2e16fb87c035a8d92d4e75d05d8bfb341acc3f597bf46783d1088560001b61286a565b61051d7ff7433932e506b110999cd0bf8e58fceb6a923605fcccd47c7e595d79b72af65d60001b61286a565b6105497f3ac107da5310104f8fec1b976a61349783abb3f64eddca123031cdeaa503a50860001b61286a565b4260008084815260200190815260200160002060060154116105a0576040517f08c379a000000000000000000000000000000000000000000000000000000000815260040161059790612ef1565b60405180910390fd5b6105cc7f8c0210d8c8c557988162fa0fcb32645f477e4fd18a00b1b63290a0f6f40e5a4f60001b61286a565b6105f87fe84c7d02cef2a7a050f9b23c4cf9918ab953fbad5ec783629c5be56ab20c77e860001b61286a565b6106247fdd58f7b93a19e9450ade180fcceea87f10ad0ed0bddbfac9b05bda4b88d0c16e60001b61286a565b6106507f89c4936121484632c17c2eb3ed766fd84c92fb35db9f0b0b935b4fae5bf3918960001b61286a565b8073ffffffffffffffffffffffffffffffffffffffff163373ffffffffffffffffffffffffffffffffffffffff1614156106bf576040517f08c379a00000000000000000000000000000000000000000000000000000000081526004016106b690612f11565b60405180910390fd5b6106eb7f3bad41794ed7e9bffd053f5a53e2ce08360e562d54b25c56308ce2c458046c9c60001b61286a565b6107177f8383744722925c20bc89774c8cda3346ead04a3de17d1fc7c5d10f733562bdc660001b61286a565b6107437fdd7c23039c5cfd0de197dd04ae14987cba1c6aca8de66a0c2c9a136615917b2260001b61286a565b61076f7f508a9d4d92bc6503961b0330feb5aba661c7ba0af8b9ea79938c97cbc259b9e160001b61286a565b60008083815260200190815260200160002060010160008273ffffffffffffffffffffffffffffffffffffffff1673ffffffffffffffffffffffffffffffffffffffff16815260200190815260200160002060010160009054906101000a900460ff16610811576040517f08c379a000000000000000000000000000000000000000000000000000000000815260040161080890612fd1565b60405180910390fd5b61083d7fb7d076b057978ec309c70533a29c238d470861c5cf6c1a3aab79cd94803481b360001b61286a565b6108697f7c30536f7ff718ca7d95a5b66d183b399133c440f1e611ca0dc5604b3a031ddc60001b61286a565b6108957f4eeb60b7007b449dd3d9ae7b4f022540a91cf2514738a35e113a3f916c5d731160001b61286a565b6108c17f2a80211ae5361e719edea6875b5eae8ee9e49d5bf4b47413ca878869e4364f8160001b61286a565b6002543414610905576040517f08c379a00000000000000000000000000000000000000000000000000000000081526004016108fc90612fb1565b60405180910390fd5b6109317ffb7a6402889a477fd8c9b3fa7f990d5f81d940bfd0a86f024a0cf603e38cfaff60001b61286a565b61095d7f2003df7e55239bbe0810382ad85128bb317ebac1113d2bdf575936106bca63fa60001b61286a565b6109897fbfbc4b8fd85d9549d066f7638f206b78ed8b73bb921e4f95260b8b148bf84d7160001b61286a565b6109b57f0d4046d480b1c3864109bdc335afd997e5afaa69309bde7fe362cc1dd29e08ec60001b61286a565b600073ffffffffffffffffffffffffffffffffffffffff1660008084815260200190815260200160002060000160003373ffffffffffffffffffffffffffffffffffffffff1673ffffffffffffffffffffffffffffffffffffffff16815260200190815260200160002060009054906101000a900473ffffffffffffffffffffffffffffffffffffffff1673ffffffffffffffffffffffffffffffffffffffff1614610a96576040517f08c379a0000000000000000000000000000000000000000000000000000000008152600401610a8d90612f51565b60405180910390fd5b610ac27f983043dcec0b90562af12bc667203ea2125eebe6d22178e1de33da31bad12c3d60001b61286a565b610aee7f43a870ecb37b9da7d10dc6e80807558131870e9c652b5023d0f57f4c3031d0e260001b61286a565b610b1a7f3a198ae6e3e3f78d59e20421429922050d50632a4762fc83c09f895917c2d8ae60001b61286a565b610b467f9a90396b3d0b30e7908c6306442e2e9d76a2754e5abcedec12903b358e4a4b9f60001b61286a565b60008085815260200190815260200160002060010160008473ffffffffffffffffffffffffffffffffffffffff1673ffffffffffffffffffffffffffffffffffffffff1681526020019081526020016000206000016000815480929190610bac906132bf565b9190505550610bdd7fd6747678637c73016787c5de4fc29aa74929e0408854d6ce30385ab971281f0860001b61286a565b610c097f04fc5505e5b318faaed5426c7326997fc168066ecd9d7c357fb125670a28db9260001b61286a565b8260008086815260200190815260200160002060000160003373ffffffffffffffffffffffffffffffffffffffff1673ffffffffffffffffffffffffffffffffffffffff16815260200190815260200160002060006101000a81548173ffffffffffffffffffffffffffffffffffffffff021916908373ffffffffffffffffffffffffffffffffffffffff160217905550610cc67fa5263a9c34f39a969b1a04955b52c7cee9ad11856e24266d3653915f6480bcb860001b61286a565b6000808581526020019081526020016000206004016000815480929190610cec906132bf565b9190505550610d1d7f056500318ecf3e852fa53a7bad07ab2e9d93b56ace6c68edcf2b2b60d7048f8660001b61286a565b610d497fd96ce6280c91703d0ddcb8333e229e840b0be068d24f58cb49797193920745f960001b61286a565b6000808581526020019081526020016000206005015460008086815260200190815260200160002060010160008573ffffffffffffffffffffffffffffffffffffffff1673ffffffffffffffffffffffffffffffffffffffff168152602001908152602001600020600001541115610f5f57610de77fe76efb4a3b9a1cc0f2f417043059cf01773262540165c5da931c4ae3d560cc1660001b61286a565b610e137f522c6e3a3dc394c8e48a85c94fd474b1ab352871ceef0e10b8e8e6bcbe11af9660001b61286a565b610e3f7f273d4ac68fa76ca0a396f6fab8fa47cdd02ced62e5c40be530a94c0a841e54f960001b61286a565b60008085815260200190815260200160002060010160008473ffffffffffffffffffffffffffffffffffffffff1673ffffffffffffffffffffffffffffffffffffffff1681526020019081526020016000206000015460008086815260200190815260200160002060050181905550610eda7fa704029bd2e8fa2c0ab47a097912551c061256be56646c8fb6f0f1da2bf8e1bd60001b61286a565b610f067fb8e72b576d1b7adbc6eaee1b9aa1f4999259be188d63d155510029f37eb1cdd460001b61286a565b8260008086815260200190815260200160002060030160006101000a81548173ffffffffffffffffffffffffffffffffffffffff021916908373ffffffffffffffffffffffffffffffffffffffff160217905550610f8c565b610f8b7fc4d04c9fb7e24e5a6205be38f5711de7d3781a410ec30a2b2adec2bbf5db087960001b61286a565b5b50505050565b6000610fc07feff66ad69a6827f065e88b766d771cda11e4a6ae66a6d10ce4267b6099e0afd560001b61286a565b610fec7fa2db813de5a2dd27f1b147cb91ae52707d847373d3377a3841801a26e264268f60001b61286a565b6110187fcd7e9fc9d4873d5f35175ca80f88eb24aed987b62e2c99fb1e1f5967016e8d3460001b61286a565b47905090565b60015481565b60045481565b6110567f3c7af0c7f8f4b479781275aaca4275a784b68eac9ded6989e63650b17e06977560001b61286a565b6110827f17da741f75a73c8229437ba40a752a7c9b7a9844c27697998a2cf67876bd4e4460001b61286a565b6110ae7f708b060130cb53e117bc0b61109e4ce774e56644f8c46d3be7993b4b10405c7260001b61286a565b6110da7f0237277423f050ff67d8f5e90b324ff391216c753b605ca9a929f14632c2c19e60001b61286a565b600560009054906101000a900473ffffffffffffffffffffffffffffffffffffffff1673ffffffffffffffffffffffffffffffffffffffff163373ffffffffffffffffffffffffffffffffffffffff161461116a576040517f08c379a000000000000000000000000000000000000000000000000000000000815260040161116190612ed1565b60405180910390fd5b6111957ea21a7544b7e25c140c4f1e07126a91827c34d641103b06acf1aa55deb3c9d060001b61286a565b6111c17f528237a7031718f8f40714f253a1b4b45e821b47d24a7cad2ea3df146b084f3860001b61286a565b6111ed7ff990281323a00ce0ceaf09b20f62857f9244f5b9eb218d6dc6a39a89abe72fca60001b61286a565b6112197fd04ec62d7b3d2dcb44c011f5b289881073058039e67a643de4130c5dbc72193c60001b61286a565b6112457f094b67186af581a8c5c35fae0e449ecd5d47ad32179d13ddda1364ec6270c1b460001b61286a565b6112717f836baf79d905cad5e2230d583369e383fbd0f7f3b4fde67aa4805297afdb6df960001b61286a565b6004548111156112b6576040517f08c379a00000000000000000000000000000000000000000000000000000000081526004016112ad90612f91565b60405180910390fd5b6112e27f1893f5aa8f03842f92485fc3bfe746959df4785f998e010e296bb63c5f2c65d760001b61286a565b61130e7f1d6b2b9e6bd212199e3aa8841cdde9ceb8553d8319a1d1f43598e6b428dfd27f60001b61286a565b61133a7f95d7ae6e872f2197954a501046a9ffecea1b1b07995a2d40da4fa75230ae2e6560001b61286a565b6113667f099b78f03a0e62799fea02f9b820fbf004fe97e0f1083f288aa210b9e9fb4b6160001b61286a565b60008114156113aa576040517f08c379a00000000000000000000000000000000000000000000000000000000081526004016113a190612f71565b60405180910390fd5b6113d67f7adee266636832ce72d4747a14f04f6dbf87f01130b43791b3d39a3fec1d730160001b61286a565b6114027ffb8f9509c560a223e1744080a518bb06517d3ed5da056a1f6315ed365656adb460001b61286a565b61142e7f5151a0cde136fb5dabfaf8c264f5153ed1b9487209684cd235ed6ce0e629505b60001b61286a565b61145a600560009054906101000a900473ffffffffffffffffffffffffffffffffffffffff168261286d565b6114867fc13d17a52773a55b0a262f255961ab726fc4765cd48999fd086ed1c6ae6b1d9c60001b61286a565b6114b27f62ee2b4474ee35288029fd6324f8bdfe07095f2c75211c6925803d93468aafd060001b61286a565b80600460008282546114c49190613208565b9250508190555050565b60035481565b60606115027f0a0eb339a724b190ede9fb2cb043798d935048a1b658465cfda20b02156d506d60001b61286a565b61152e7f5c1a7b70ed91b180878c8539df91720060a4c19a8b963bc21cc44c3e2b20fff760001b61286a565b61155a7fb66be82ce9d6e92e5e8336cba20de1612992eccda65e437b8b9ec785ac33bdfe60001b61286a565b6000808381526020019081526020016000206002018054806020026020016040519081016040528092919081815260200182805480156115ef57602002820191906000526020600020905b8160009054906101000a900473ffffffffffffffffffffffffffffffffffffffff1673ffffffffffffffffffffffffffffffffffffffff16815260200190600101908083116115a5575b50505050509050919050565b60006116297f9bb01ee17ee7da5e986b5d16d403520ad707c7624910531109d0898b5613086960001b61286a565b6116557f94f2ad3786bbb52649f9b4c6dd368f5ebc23b4fda5669442ee4b7fed00c7281560001b61286a565b6116817f3f48cb40fcc10a8dd1e390da8596e5d3217f7bb3af8328dbad55b6ca6710ae9060001b61286a565b60008083815260200190815260200160002060030160009054906101000a900473ffffffffffffffffffffffffffffffffffffffff169050919050565b60006116ec7fdf5c5f99307595d02dbb82f92e84d8fd0ce42620a3f9708457cdd9f44149fc8760001b61286a565b6117187f7be92e717284a065d304a4ecbb1dd4eabb487e779c82975c73d74c91f393723b60001b61286a565b6117447f5ee042667a8d2e01abaf3b0356859ba109975e099ce681aa99bbe4a182a7c87b60001b61286a565b60008084815260200190815260200160002060010160008373ffffffffffffffffffffffffffffffffffffffff1673ffffffffffffffffffffffffffffffffffffffff16815260200190815260200160002060000154905092915050565b60006020528060005260406000206000915090508060030160009054906101000a900473ffffffffffffffffffffffffffffffffffffffff16908060040154908060050154908060060154908060070160009054906101000a900460ff16905085565b60025481565b6118377f5754ada1cf7fc830e55b31589d87ddc3a67a0fb0ed58731040ca6a0545ce079a60001b61286a565b6118637f425d5ebc82264d2e21bff253bd704112e9732cbd2e9b3be38f6f41fef0c9412a60001b61286a565b61188f7fc0d1c5bdd9cc115441987c27e1639d3a20c60502de43ca9b0aa82f4dee5362e460001b61286a565b6118bb7f6eb75fd416424ffff6cbb0a989922a2a8194563fd277370f7b4d9d9d8ac07c6f60001b61286a565b60008082815260200190815260200160002060070160009054906101000a900460ff1661191d576040517f08c379a000000000000000000000000000000000000000000000000000000000815260040161191490613011565b60405180910390fd5b6119497f0fedfb28ce4cb0d285d12b0c71b9d88070bfc98776a7f16a88bb3d711c44231760001b61286a565b6119757fa663b7bfabd1e50e94bc9a6365b3dfb360fbd57fa44d1d78427a3a61610badfc60001b61286a565b6119a17f60eb676291c55aa9960e50cb0ca41dde483e428220c8e1c1b3ebae3eeadf9eed60001b61286a565b6119cd7fb1ac4059c3d05477bcfcb12345c57baef6b69de8093e3d62986d1904c072878060001b61286a565b42600080838152602001908152602001600020600601541115611a25576040517f08c379a0000000000000000000000000000000000000000000000000000000008152600401611a1c90612f31565b60405180910390fd5b611a517f8cc43d6fe3170ffd8cfb8897f2b5e4e9616af110cac1aaf5ae663db93fd7521460001b61286a565b611a7d7f3711347d3490e072f6bd421a8f6b7c9fa56cbed3a171eb5553f4697081ed3a1f60001b61286a565b611aa97f44f26dd25d64f91ce172fdc0c5fc2211c571dabaa78c9ee974c9dcebf4907cfb60001b61286a565b600080600083815260200190815260200160002060070160006101000a81548160ff021916908315150217905550611b037fd1857040418d0ad940b83913eb4c3cfb9a235d7133b519ae3193cc1f522141ab60001b61286a565b611b2f7f370acbdd93d154a822535e5c464d9b68db5cba6638512607b3633b4afc9d277760001b61286a565b6000806000838152602001908152602001600020600401541415611bd657611b797faa4b588216d34816839518da271fdceea2f91908808af93b2e274c5bc68565f360001b61286a565b611ba57f09108851ca75877a789006811275150088dbee202007efbf4363cd0f3c4c064d60001b61286a565b611bd17ff1b99c7a218efc8a105e027087089b26437ef839a92bc4b67da0e1a40113e97360001b61286a565b611ec7565b611c027fa9f94e264fb010a166b6cfd2ebec785456031bd0ee83c692d7ec012f8c1af9cb60001b61286a565b611c2e7f1cff356a02608062365788297f1c9b4811f0cd430a2e0b546a795a4af6a7a8dd60001b61286a565b611c5a7f1fe7c50d504cb8eefdb3d74f06a7781b952700ee2d7e2dc66823f40b6127c72460001b61286a565b600060646003546064611c6d9190613208565b60025460008086815260200190815260200160002060040154611c9091906131ae565b611c9a91906131ae565b611ca4919061317d565b9050611cd27f79978f829b93b51016f410ce3916614a4560aad9dcb6050626729078333df22e60001b61286a565b611cfe7f8abbdd27a0894e0699e5f75cb1729d7fed496438bca17e31f2dff7ffbf96c17960001b61286a565b60008083815260200190815260200160002060030160009054906101000a900473ffffffffffffffffffffffffffffffffffffffff1673ffffffffffffffffffffffffffffffffffffffff16827f1c2ae1f7e99dbbbfe25aac964f3889ea68259d88b74709f53037a6fb930bb02a83604051611d7a9190613071565b60405180910390a3611dae7f8deb733efe0c0d40f4468c80ef7b291a82362ce0998914930d55a95a3794913360001b61286a565b611dda7fa1b90bc6aab1c3096897befaabe3f9086392005d26b8dfa2730cc3b977ba51bb60001b61286a565b611e1960008084815260200190815260200160002060030160009054906101000a900473ffffffffffffffffffffffffffffffffffffffff168261286d565b611e457f81cc162194aa77c2a464c6c216f1884aabff8133e7c6baa064bd767ee681420460001b61286a565b611e717f8105cca5901932826b857436a16a63b4144cb34783dc383930fca7d4f57ae48660001b61286a565b606460035460025460008086815260200190815260200160002060040154611e9991906131ae565b611ea391906131ae565b611ead919061317d565b60046000828254611ebe9190613127565b92505081905550505b50565b611ef67f3c7af0c7f8f4b479781275aaca4275a784b68eac9ded6989e63650b17e06977560001b61286a565b611f227f17da741f75a73c8229437ba40a752a7c9b7a9844c27697998a2cf67876bd4e4460001b61286a565b611f4e7f708b060130cb53e117bc0b61109e4ce774e56644f8c46d3be7993b4b10405c7260001b61286a565b611f7a7f0237277423f050ff67d8f5e90b324ff391216c753b605ca9a929f14632c2c19e60001b61286a565b600560009054906101000a900473ffffffffffffffffffffffffffffffffffffffff1673ffffffffffffffffffffffffffffffffffffffff163373ffffffffffffffffffffffffffffffffffffffff161461200a576040517f08c379a000000000000000000000000000000000000000000000000000000000815260040161200190612ed1565b60405180910390fd5b6120357ea21a7544b7e25c140c4f1e07126a91827c34d641103b06acf1aa55deb3c9d060001b61286a565b6120617f528237a7031718f8f40714f253a1b4b45e821b47d24a7cad2ea3df146b084f3860001b61286a565b61208d7fb0430d52cda17f0f1a67e7192da36ac223d335f6bc2db18bb739f84f67a962b460001b61286a565b6120b97fd980f844476a03082987693d8bf16290a201cb4f456c84c2af43094fec0f405760001b61286a565b6120e57fb461c1bd0c1dabc80ba017df99b8bba834e868f54d7fcaca00d637104f1765d760001b61286a565b6121117f1ec2008a2ddd73a32bd3b6ed560f9ac4d705804b3e804ccb737233f4f969284360001b61286a565b60008083815260200190815260200160002060070160009054906101000a900460ff1615612174576040517f08c379a000000000000000000000000000000000000000000000000000000000815260040161216b90613051565b60405180910390fd5b6121a07ff8a61a1b11eb40157ae7ef9826fbb4bcd42ea9cda497d96daf2002f73827a6c860001b61286a565b6121cc7f60a623e8a7b928312532a439cec2350a772014affa46ecfb881627874582986960001b61286a565b6121f87f0c7348cf12b0a72ddb7c29a9a08543a7c043cde4322a19b047d0199424ff3cb460001b61286a565b6122247fe371e3dc66d493a096d7a6f543e190d65d9a073e3460d3eaa77eac555856f92c60001b61286a565b6001815111612268576040517f08c379a000000000000000000000000000000000000000000000000000000000815260040161225f90612ff1565b60405180910390fd5b6122947ff112b23c041ea2ef7640fc18d1123cc7728547531a0a9ad622c41cd5f0c5e67560001b61286a565b6122c07f583d8f4b10fd1afc47063cbb81b264c521156484b44b3c5eebb267475ec96cd960001b61286a565b6122ec7f4ccbe73c856b5192a125ea4ce67d2dd5e98f9203e22224c09c24834e0d6772e860001b61286a565b60005b81518110156126b2576123247f0b38d0d6523af0310b1b178c3c4d7db25e743aa79c68f48a88a8601accd59c9c60001b61286a565b6123507f4d9294571d344616e6a81e67aa4e006b68168c4b794f4e4491ba1270fbbb132860001b61286a565b61237c7f7ebeb2ff017668530be8477daf6eeb4725c09da4ef5755d1b0d85f490723d5fc60001b61286a565b60008084815260200190815260200160002060010160008383815181106123cc577f4e487b7100000000000000000000000000000000000000000000000000000000600052603260045260246000fd5b602002602001015173ffffffffffffffffffffffffffffffffffffffff1673ffffffffffffffffffffffffffffffffffffffff16815260200190815260200160002060010160009054906101000a900460ff161561245f576040517f08c379a000000000000000000000000000000000000000000000000000000000815260040161245690613031565b60405180910390fd5b61248b7fe2c0bafc99f10bcd1b4dc37c6a2524153210d78e534c8b952a04eb1ec8e0888560001b61286a565b6124b77ffc8d52829c52d6130896664c99f3d875e0fba3f77cc4b829b968912192a9c95a60001b61286a565b6124e37f23900498f7a25fb926680697aa46c6505458fa424066d84040d0943ecc4062b260001b61286a565b60016000808581526020019081526020016000206001016000848481518110612535577f4e487b7100000000000000000000000000000000000000000000000000000000600052603260045260246000fd5b602002602001015173ffffffffffffffffffffffffffffffffffffffff1673ffffffffffffffffffffffffffffffffffffffff16815260200190815260200160002060010160006101000a81548160ff0219169083151502179055506125bd7f2a5a584def8d50060335364416c6712ee31cbe2d9f7236aacefccc769e2f601f60001b61286a565b6125e97f53b0738891f90be2c27924e5bd57cdbd6cdffe192363a5146f30474bf8ba3b4a60001b61286a565b600080848152602001908152602001600020600201828281518110612637577f4e487b7100000000000000000000000000000000000000000000000000000000600052603260045260246000fd5b60200260200101519080600181540180825580915050600190039060005260206000200160009091909190916101000a81548173ffffffffffffffffffffffffffffffffffffffff021916908373ffffffffffffffffffffffffffffffffffffffff16021790555080806126aa906132bf565b9150506122ef565b506126df7f59c0011e3fa5dfb051caf6c023a3e6013dc6d1d7425628e7a586b9abcbe9d8b560001b61286a565b61270b7fe83e0681976a09128d13ed097959142ffe197a3edda1f8c3d34ec6236b15932160001b61286a565b600160008084815260200190815260200160002060070160006101000a81548160ff0219169083151502179055506127657fe129b29918066535ddfc122c3c20cf31aab2fabd154a9b60db34dd67c1f55c3160001b61286a565b6127917f5f99390f842e89e5645a3a6f796b8e6062c4285a519ec7f8dee8539b846ff4bc60001b61286a565b6001544261279f9190613127565b600080848152602001908152602001600020600601819055505050565b60006127ea7ff5e240354bc5bb3496b9e96013282c032b5a8e33ad29bb194c1e74e9b609829860001b61286a565b6128167f146d6bdc370fcf9153ad93e721a746aeba5f82c681e24c3e0b131fec4eef811460001b61286a565b6128427f057da40c6ab599e94a9d9c6e259c097928d82238de154508c53a2edc7ea3976160001b61286a565b42600080848152602001908152602001600020600601546128639190613208565b9050919050565b50565b6128997ff525bb4aa696b2bc29fa320f607ef0152235418e1c11636252a9cdb1e006af7660001b61286a565b6128c57f7d2efc7236f229b45c9ba3121f70397aab7db34f9fe0dd3fe383d9dd74d3123b60001b61286a565b6128f17f10dbe6be8972623f97da63c82e7020ae8021a9d053d8fc33ec7dc8ed50d2dd9160001b61286a565b8173ffffffffffffffffffffffffffffffffffffffff166108fc829081150290604051600060405180830381858888f19350505050158015612937573d6000803e3d6000fd5b506129647f6249c1f072d0d4b3853c19d764262808ba112596926e35723e36244c9d30477560001b61286a565b6129907f67b3b8fdbca3f49b3f08f896e86af8086ffc291c9aaa1aafad88c03d76f77dcc60001b61286a565b8173ffffffffffffffffffffffffffffffffffffffff167f69ca02dd4edd7bf0a4abb9ed3b7af3f14778db5d61921c7dc7cd545266326de2826040516129d69190613071565b60405180910390a25050565b60006129f56129f0846130b1565b61308c565b90508083825260208201905082856020860282011115612a1457600080fd5b60005b85811015612a445781612a2a8882612a4e565b845260208401935060208301925050600181019050612a17565b5050509392505050565b600081359050612a5d81613630565b92915050565b600082601f830112612a7457600080fd5b8135612a848482602086016129e2565b91505092915050565b600081359050612a9c81613647565b92915050565b600060208284031215612ab457600080fd5b6000612ac284828501612a8d565b91505092915050565b60008060408385031215612ade57600080fd5b6000612aec85828601612a8d565b9250506020612afd85828601612a4e565b9150509250929050565b60008060408385031215612b1a57600080fd5b6000612b2885828601612a8d565b925050602083013567ffffffffffffffff811115612b4557600080fd5b612b5185828601612a63565b9150509250929050565b6000612b678383612b73565b60208301905092915050565b612b7c8161323c565b82525050565b612b8b8161323c565b82525050565b6000612b9c826130ed565b612ba68185613105565b9350612bb1836130dd565b8060005b83811015612be2578151612bc98882612b5b565b9750612bd4836130f8565b925050600181019050612bb5565b5085935050505092915050565b612bf88161324e565b82525050565b612c078161325a565b82525050565b6000612c1a600f83613116565b9150612c25826133a6565b602082019050919050565b6000612c3d601583613116565b9150612c48826133cf565b602082019050919050565b6000612c60601283613116565b9150612c6b826133f8565b602082019050919050565b6000612c83601b83613116565b9150612c8e82613421565b602082019050919050565b6000612ca6601883613116565b9150612cb18261344a565b602082019050919050565b6000612cc9601783613116565b9150612cd482613473565b602082019050919050565b6000612cec601983613116565b9150612cf78261349c565b602082019050919050565b6000612d0f601d83613116565b9150612d1a826134c5565b602082019050919050565b6000612d32601783613116565b9150612d3d826134ee565b602082019050919050565b6000612d55601283613116565b9150612d6082613517565b602082019050919050565b6000612d78602283613116565b9150612d8382613540565b604082019050919050565b6000612d9b601183613116565b9150612da68261358f565b602082019050919050565b6000612dbe602b83613116565b9150612dc9826135b8565b604082019050919050565b6000612de1601483613116565b9150612dec82613607565b602082019050919050565b612e0081613284565b82525050565b6000602082019050612e1b6000830184612b82565b92915050565b600060a082019050612e366000830188612b82565b612e436020830187612df7565b612e506040830186612df7565b612e5d6060830185612df7565b612e6a6080830184612bef565b9695505050505050565b60006020820190508181036000830152612e8e8184612b91565b905092915050565b6000602082019050612eab6000830184612bfe565b92915050565b60006020820190508181036000830152612eca81612c0d565b9050919050565b60006020820190508181036000830152612eea81612c30565b9050919050565b60006020820190508181036000830152612f0a81612c53565b9050919050565b60006020820190508181036000830152612f2a81612c76565b9050919050565b60006020820190508181036000830152612f4a81612c99565b9050919050565b60006020820190508181036000830152612f6a81612cbc565b9050919050565b60006020820190508181036000830152612f8a81612cdf565b9050919050565b60006020820190508181036000830152612faa81612d02565b9050919050565b60006020820190508181036000830152612fca81612d25565b9050919050565b60006020820190508181036000830152612fea81612d48565b9050919050565b6000602082019050818103600083015261300a81612d6b565b9050919050565b6000602082019050818103600083015261302a81612d8e565b9050919050565b6000602082019050818103600083015261304a81612db1565b9050919050565b6000602082019050818103600083015261306a81612dd4565b9050919050565b60006020820190506130866000830184612df7565b92915050565b60006130966130a7565b90506130a2828261328e565b919050565b6000604051905090565b600067ffffffffffffffff8211156130cc576130cb613366565b5b602082029050602081019050919050565b6000819050602082019050919050565b600081519050919050565b6000602082019050919050565b600082825260208201905092915050565b600082825260208201905092915050565b600061313282613284565b915061313d83613284565b9250827fffffffffffffffffffffffffffffffffffffffffffffffffffffffffffffffff0382111561317257613171613308565b5b828201905092915050565b600061318882613284565b915061319383613284565b9250826131a3576131a2613337565b5b828204905092915050565b60006131b982613284565b91506131c483613284565b9250817fffffffffffffffffffffffffffffffffffffffffffffffffffffffffffffffff04831182151516156131fd576131fc613308565b5b828202905092915050565b600061321382613284565b915061321e83613284565b92508282101561323157613230613308565b5b828203905092915050565b600061324782613264565b9050919050565b60008115159050919050565b6000819050919050565b600073ffffffffffffffffffffffffffffffffffffffff82169050919050565b6000819050919050565b61329782613395565b810181811067ffffffffffffffff821117156132b6576132b5613366565b5b80604052505050565b60006132ca82613284565b91507fffffffffffffffffffffffffffffffffffffffffffffffffffffffffffffffff8214156132fd576132fc613308565b5b600182019050919050565b7f4e487b7100000000000000000000000000000000000000000000000000000000600052601160045260246000fd5b7f4e487b7100000000000000000000000000000000000000000000000000000000600052601260045260246000fd5b7f4e487b7100000000000000000000000000000000000000000000000000000000600052604160045260246000fd5b6000601f19601f8301169050919050565b7f4e6f207375636820766f74696e67210000000000000000000000000000000000600082015250565b7f596f7520617265206e6f7420616e206f776e6572210000000000000000000000600082015250565b7f5468697320766f7465206973206f766572210000000000000000000000000000600082015250565b7f596f752063616e7420766f746520666f7220796f757273656c66210000000000600082015250565b7f43616e742066696e69736820766f6974696e6720796574210000000000000000600082015250565b7f596f75206861766520616c726561647920766f74656421000000000000000000600082015250565b7f43616e74207769746864726177206e756c6c2076616c75652100000000000000600082015250565b7f56616c7565206973206f7574206f6620667265652062616c616e636521000000600082015250565b7f496e636f727265637420766f74696e6720707269736521000000000000000000600082015250565b7f4e6f20737563682063616e646964617465210000000000000000000000000000600082015250565b7f4d7573742068617665206174206c656173742074776f2063616e64696461746560008201527f7321000000000000000000000000000000000000000000000000000000000000602082015250565b7f566f74696e67206e6f7420666f756e6421000000000000000000000000000000600082015250565b7f446f6e7420757365206475706c696361746573207768656e20616464696e672060008201527f63616e6469646174657321000000000000000000000000000000000000000000602082015250565b7f5468697320696e6465782069732074616b656e21000000000000000000000000600082015250565b6136398161323c565b811461364457600080fd5b50565b61365081613284565b811461365b57600080fd5b5056fea26469706673582212207afb7b65b9153bc98350d1daee541c0f73643bf162031b16c541d1c05e1138f464736f6c63430008040033",
  "linkReferences": {},
  "deployedLinkReferences": {}
}